:020000040800F2
:10000000500B002001010008A51300080B01000897
:10001000A1130008030800087D3300080000000059
:10002000000000000000000000000000AD18000803
:10003000410F000800000000DD150008D521000870
:100040001B0100081B0100081B0100081B01000820
:100050001B0100081B0100081B0100081B01000810
:100060001B0100081B0100081B0100081B01000800
:100070001B0100081B0100081B0100081B010008F0
:100080001B0100081B0100081B0100081B010008E0
:10009000193200081B0100081B0100081B010008A1
:1000A0001B0100081B0100081B0100081B010008C0
:1000B000892500081B010008C52600081B0100084F
:1000C0001B0100081B0100081B0100081B010008A0
:1000D0001B010008ED2B00081B0100081B01000894
:1000E0001B0100081B010008632F0008DFF80CD07B
:1000F00000F03AFB00480047A93F0008500B0020E1
:100100000648804706480047FEE7FEE7FEE7FEE7B1
:10011000FEE7FEE7FEE7FEE7FEE7FEE71522000842
:10012000ED000008421C10F8011B0029FBD1801AC9
:10013000704780EA010210B502F00043400022D06F
:100140004A001FD0010E01EB1261C0F35600C2F34A
:10015000560240F4000042F40002A0FB022000041A
:100160007F39140400D0401C50EA124001D44000F2
:10017000491EC2B20C0604EBD010401C4008802A75
:1001800002D003E0002010BD20F00100002900DAB9
:100190000020184310BD2DE9FE4F804681EA030080
:1001A000C00F0C46009021F0004123F00045B8EB51
:1001B0000200A94105D24046214690461C460B4606
:1001C000024623F00040104347D0270DC7F30A0032
:1001D000C3F30A510290401A019040286BDAC3F32E
:1001E000130040F4801B0098924620B10023D2EB0C
:1001F000030A63EB0B0B01985946C0F140025046CD
:1002000000F0E5F906460D4650465946019A00F0C1
:10021000EDF910EB08006141002487EA115284EAED
:10022000E7731A4340D0009A62B3019A012A4FEA59
:10023000075215DC001B61EB02014FF0004202EA9D
:100240000752CDE90042001C41F5801132462B4691
:1002500000F024FA03B0BDE8F08F40462146F9E7EC
:10026000001B61EB0201001C41F5801300185B418B
:100270002018A2F5001747EB030140EAD570B61924
:100280006D4111E06D084FEA360645EAC0754FEA48
:100290000752001B61EB0201001C41F58011490867
:1002A0004FEA30000019514132462B4603B0BDE8F9
:1002B000F04F00F0E4B90098012240000023D0EB99
:1002C000020263EBE073009821464FEAE074B8EB5A
:1002D000000061EB0401E9E783F000435BE781F094
:1002E000004158E72DE9FE4F81EA030404F0004481
:1002F00021F0004100944FF0000B23F0004350EA3E
:1003000001045ED052EA03045BD0C3F30A54C1F384
:100310000A552C44A4F2F3340194A0FB0254C1F317
:10032000130141F48011C3F3130343F4801301FB61
:10033000024400FB034E840A970A44EA815447EAC8
:100340008357A4FB076802958D0A05FB07854FEAD2
:10035000932C04FB0C542705029D4FEA065847EAEC
:100360001637B5EB08056EEB070C870E920E47EAC1
:10037000811742EA8312A7FB0201B6EB0B0164EB83
:1003800000042B0D43EA0C335E1844EB1C50DA4694
:100390005146E7FB0201C5F313044FEA0B3343EA6E
:1003A00014534FEA0432019C43EA0603A4F10C04FF
:1003B0000294009CCDE900B400F070F903B0BDE8F0
:1003C000F08F00200146F9E72DE9F04D81EA0304A2
:1003D00004F0004B21F0004514464FF0000A23F0D2
:1003E000004150EA050220D054EA01021DD0C5F3B5
:1003F0000A570246C5F31303C1F31300C1F30A56AB
:1004000040F4801543F48013A7EB0608101BD64672
:1004100008F2FD3873EB050002D308F1010801E092
:1004200092185B41B8F1000F03DA00200146BDE8E5
:10043000F08D00204FF48011064684460EE0171B15
:1004400073EB050705D3121B63EB050306434CEA68
:10045000010C49084FEA300092185B4150EA01074D
:10046000EDD152EA030012D082EA040083EA0501CA
:10047000084305D0101BAB4106D20122002306E041
:1004800000224FF0004302E06FF0010253101AEB1C
:1004900006004CEB085110EB0A0041EB0B01BDE8E4
:1004A000F04D00F0ECB8C10F80EAE0700844CA07D4
:1004B0009623002100F0B5B896230022114600F0E3
:1004C000B0B820F00040C10DC0F3160040F40000A9
:1004D0007F2901DA00207047962903DCC1F19601DB
:1004E000C840704796398840704700F0004230F0AD
:1004F00000400AD0C10D01F56071C0F3160042EA58
:100500000151C2084007114370470020014670475F
:1005100030B5041E71F1000404DB4FF0004440428A
:1005200064EB0101141E73F1000405DB1C464FF05F
:100530000043524263EB0403994208BF904230BD2E
:1005400030B50B46014600202022012409E021FAA3
:1005500002F59D4205D303FA02F5491B04FA02F5A0
:100560002844151EA2F10102F1DC30BD2DE9F05F37
:100570000546002092469B46884606468146402412
:100580001BE0284641464746224600F0FFF8534606
:100590005A46C01A914110D311461846224600F01F
:1005A00016F82D1A67EB01084F462246012000215C
:1005B00000F00DF817EB00094E41201EA4F10104D4
:1005C000DFDC484631462A464346BDE8F09F202AF4
:1005D00004DB203A00FA02F1002070479140C2F19A
:1005E000200320FA03F3194390407047202A06DBCA
:1005F000CB17203A41FA02F043EAE07306E041FAF1
:1006000002F3D040C2F120029140084319467047DE
:100610000029A8BF7047401C490008BF20F0010016
:10062000704710B4B0FA80FC00FA0CF050EA0104F4
:1006300004BF10BC704749B1CCF1200421FA04F486
:1006400011FA0CF118BF012121430843A3EB0C015F
:10065000CB1D4FEA00614FEA102042BF002010BCC2
:10066000704700EBC35010440029A4BF10BC704772
:10067000401C490008BF20F0010010BC704710B5B5
:10068000141E73F1000408DA401C41F100019218B5
:100690005B411A4301D120F0010010BD2DE9F04D5E
:1006A00092469B4611B1B1FA81F202E0B0FA80F2B3
:1006B00020329046FFF78BFF04460F4640EA0A00BF
:1006C00041EA0B0153465A46084313D0114653EAF8
:1006D000010019D0C8F14002504600F057F8054615
:1006E0000E46504659464246FFF771FF084305D073
:1006F000012004E020463946BDE8F08D0020054386
:1007000046EAE0762C4337430A986305E40AA0EBF7
:1007100008000022FD0A44EA47540A3002D50020AE
:100720000146E9E7010510196941DDE908450019AD
:100730006941BDE8F04DA2E7C1F30A52C1F31301CC
:1007400040F2FF3341F480119A4202DA0020014660
:10075000704740F233439A42A2F2334202DC5242E3
:1007600000F014B8FFF733BF064C074D06E0E06811
:1007700040F0010394E8070098471034AC42F6D3E8
:10078000FFF7B8FC4842000868420008202A04DB52
:10079000203A21FA02F00021704721FA02F3D040FA
:1007A000C2F12002914008431946704770B58C1879
:1007B00010F8015B15F0070301D110F8013B2A1175
:1007C00006D110F8012B03E010F8016B01F8016B62
:1007D0005B1EF9D12B0705D40023521E0DD401F85E
:1007E000013BFAE710F8013BCB1A921C03E013F827
:1007F000015B01F8015B521EF9D5A142D8D300205C
:1008000070BD00BFFEE70146CAB20B1243EA0220E8
:100810007047000008B50020009022E1974800884A
:1008200000F00F00964908700846007800287CD137
:1008300094480068944908800846008800F0300019
:10084000924908809048008800F440508E49088002
:100850008C4909684BF6BF7201EA020080F400502F
:1008600080F0200040F4004141F08001854A116091
:100870008248008800F0100090BB1046006848F6DF
:100880000F7108401146086000F0F6FC7D490968C8
:100890004BF6BF7201EA02007B49098801F48051DE
:1008A00009B180F480507849098801F4005109B1F8
:1008B00080F400507549098801F0100109B180F0F9
:1008C00010007249098801F0200109B180F0200070
:1008D00081B241F4004141F080016A4A116008BDD3
:1008E000FFE76848006880B20090BDF8000000F49F
:1008F0000060B0B363480068C0F30E0048F68F7123
:1009000008406049086001F05DF95E4909684BF6EE
:10091000BF7201EA02005C49098801F4805109B103
:1009200080F480505849098800E056E001F40051F5
:1009300009B180F400505549098801F0100109B14E
:1009400080F010005149098801F0200109B180F0C0
:10095000200081B241F4004141F08001494A116018
:10096000BDE7FFE7BDF8000000F40040002878D0A4
:1009700044480068C0F30E0048F68F7108404149B2
:10098000086000F0EFFD3F4909684BF6BF7201EACD
:1009900002003D49098801F4805109B180F480507A
:1009A0003949098801F4005109B180F400503749F0
:1009B000098801F0100109B180F01000334909885D
:1009C00001F0200109B180F0200081B241F4004122
:1009D00041F080012B4A116081E7294800782C49B9
:1009E00001EB8000D0F8000C80B20090BDF8000050
:1009F00000F40040C0B12248007801EB8000D0F83C
:100A0000000CC0F30E0048F68F7108401C490978AD
:100A10001F4A02EB8101C1F8000C19490978491EEF
:100A20001C4A52F821008047BDF8000000F0800009
:100A3000B8B113480078164901EB8000D0F8000CDB
:100A400048F60F7108400E490978114A02EB8101FE
:100A5000C1F8000C0A490978491E0F4A52F82100D2
:100A6000804708484430006880B20449088000F498
:100A7000004000287FF4D2AE00BF30E758000020CD
:100A800020000020005C00403400002036000020E0
:100A90000050004080000020640000200B4A02EB60
:100AA0008001D1F8001C01F4804171B102EB80019A
:100AB000D1F8001C48F68F7211404CF280021143AD
:100AC000024B03EB8002C2F8001C7047005000404C
:100AD0000B4A02EB8001D1F8001C01F0400171B11A
:100AE00002EB8001D1F8001C48F68F72114048F2E9
:100AF000C0021143024B03EB8002C2F8001C704796
:100B000000500040084A02EB8001D1F8001C48F672
:100B10008F62114048F280021143034B03EB8002C5
:100B2000C2F8001C70470000005000402DE9F0475B
:100B30002848006800F110052E8826480068077ACA
:100B4000D6B9042F18D12448007801280FD10021EC
:100B50002248006880B2801C214A42F810103020E0
:100B60002049088000BF00201B49087003E00727C8
:100B700010201C49088027E0AC88A64201D8042038
:100B800000E002200746B44200D93446A0B2A9686A
:100B900088478046002000F045FB8146A2B24946C6
:100BA000404602F0EDFBA1B2002000F033FF2888A0
:100BB000001B28806888204468803020094908800C
:100BC00000020949088000BF024909680F72BDE8A8
:100BD000F0870000240000201E000020505C004030
:100BE0000060004036000020340000202DE9F04174
:100BF0002848006800F110042688A068C0B1BEB182
:100C0000A588B54200D93546A8B2A16888470746ED
:100C10002088401B2080608828446080002000F0ED
:100C2000DFFA8046AAB24146384600F0C3FC00BF56
:100C3000208850B14FF440501749088000210846E1
:100C400000F0E8FE3020154908802088A1888842FD
:100C500004DB03200F490968087218E02088002887
:100C600004DD05200B490968087210E0208870B97E
:100C7000062008490968087200210948006880B206
:100C8000801C084A42F81010302004490880BDE852
:100C9000F0810000240000203400002036000020F5
:100CA000505C0040006000402DE9F84F9B48006810
:100CB00045780027BA46062D1BD198480068007871
:100CC00000F07F00002813D1944909688878012832
:100CD00003D193490968CF690AE0022803D19049FA
:100CE00009680F6A04E0032802D18D4909684F6A38
:100CF00094E0002D64D189480068408800285FD1C5
:100D000086480068C08802285AD184480068007963
:100D1000002855D181480068007800F07F0028B98C
:100D20007E480068808808B97E4F77E07B4800687D
:100D3000007800F07F00012810D1784909684879CF
:100D4000774909688A6900219047002866D173486D
:100D50000068807A002861D0724F5FE06F480068B9
:100D6000007800F07F00022858D16C480068407974
:100D700000F00F0669480068407900F07009674884
:100D80000068407900F0800038B1674901EB8600C7
:100D9000D0F8000C00F0300806E0634901EB860053
:100DA000D0F8000C00F4405860480078B04235D9C3
:100DB000B9F1000F32D1B8F1000F2FD0594F2DE00B
:100DC000082D07D155480068007800F07F0028BB47
:100DD000574F23E00A2D21D150480068007800F0D9
:100DE0007F0001281AD14D480068807AB0B14B4885
:100DF0000068408890B949480068007970B9474850
:100E00000068C088012809D14449096848794449E3
:100E100009688A690021904700B9464F57B13F4899
:100E20000068A0F812A03D48006887610020B8471C
:100E300000240FE0394A12685078394A1268116963
:100E400088470446032C05D10920344909680872F3
:100E5000BDE8F88F31480068008A4FF6FF7188427C
:100E600004D109202D4909680872F1E7022C03D04A
:100E70002A480068008A20B90820284909680872B1
:100E8000E6E726480068007800F08000E0B32348D9
:100E90000068C088009021480068008A0099884254
:100EA00004D91E4900980968088223E01B4800689D
:100EB000008A1A490968C98888421BDA17480068FD
:100EC000008A1749096891F82C10884203DA00203B
:100ED000194908700EE011480068008A1049096835
:100EE00091F82C1090FBF1F201FB120010B90120D7
:100EF000114908700A48006890F82C1007480068EB
:100F00008182FFF713FE07E0FFE70320034909682A
:100F1000087200030949088000BF99E724000020F7
:100F200028000020651E000800500040A800002096
:100F3000E91D0008391E00081E00002034000020B2
:100F40007047000070B52248B0F802042049B1F89B
:100F50000014884200D170BD1D48B0F802041C493D
:100F6000B1F80014884208DA1948B0F800041849AA
:100F7000B1F80214401A84B205E01548B0F8020432
:100F8000C0F5806084B2402C00DD40241048B0F8E9
:100F90000254B0F8020420440D49A1F802040846A6
:100FA000B0F80204B0F5806F02DB0020A1F8020463
:100FB000074948192246C02102F0E2F921460120E2
:100FC00000F028FD012000F053FD00BFC3E7000042
:100FD0005C01002010B50649032002F05FF984B2DD
:100FE000E1B2034802F072F9032000F0E9FC10BD01
:100FF000F006002001490860704700001404014019
:10100000002123498279002A3AD00A4612680368EF
:101010009A430B461A600A1D126803689A430B1D17
:101020001A60027911440A6803681A430A60184A70
:101030000832126803689A43154B08331A601A1D68
:10104000126803689A43124B0C331A604279102AD3
:101050000ED11A1F126803681A430D4B08331A6029
:101060001A1D126803681A43094B0C331A600DE00D
:101070000749427911440A6803681A430A6005E087
:10108000027911440A6803689A430A6070470000B5
:101090000004014010B503A002F0CEFA0320084975
:1010A000086010BD75736220656E746572206C6F88
:1010B0007720706F776572206D6F64650D0A000090
:1010C000300100202DE9F0410246002500260020D5
:1010D00000230024002791F803C00CF00F0591F8BD
:1010E00003C00CF0100CBCF1000F03D091F802C04B
:1010F0004CEA050591F800C0BCF1000F31D014682E
:1011000000202BE04FF0010C0CFA00F3B1F800C006
:101110000CEA03069E4220D183004FF00F0C0CFA1C
:1011200003F7BC4305FA03FC4CEA040491F803C03E
:10113000BCF1280F06D14FF0010C0CFA00FCC2F8EC
:1011400014C00AE091F803C0BCF1480F05D14FF07C
:10115000010C0CFA00FCC2F810C0401C0828D1D3C6
:101160001460B1F800C0BCF1FF0F34DD54680020FA
:101170002EE000F1080C4FF0010808FA0CF3B1F86A
:1011800000C00CEA03069E4221D183004FF00F0CF1
:101190000CFA03F7BC4305FA03FC4CEA040491F88B
:1011A00003C0BCF1280F05D100F1080C08FA0CF8B7
:1011B000C2F8148091F803C0BCF1480F07D100F1C8
:1011C000080C4FF0010808FA0CF8C2F81080401C17
:1011D0000828CED35460BDE8F0810161704700005B
:1011E00001460548006880B200EBC100001D034ABB
:1011F00032F8100080B27047505C00400060004040
:1012000001460648006880B200EBC100801D044A18
:1012100032F81000C0F3090070470000505C004035
:101220000060004001460548006880B200EBC10044
:10123000034A32F8100080B270470000505C004052
:101240000060004070B50A480468001D0568001D74
:101250000668344454B108220649204600F044F898
:10126000042204491031284600F03EF870BD000009
:10127000E8F7FF1F3C00002010B518480068047A0A
:10128000022C01D0042C05D1FFF750FC1348006854
:10129000047A1CE0062C19D1104800684078052813
:1012A0000ED10E480068007800F07F0040B90B496D
:1012B0000968C87800F004FB09490968086A804792
:1012C0000849096888688047082400E00824034921
:1012D00009680C7200F084F910BD000024000020A1
:1012E000300000202800002030B50B46002100BF50
:1012F00016E00A24B4EB107F05D9302404EB1074F7
:1013000003F8114005E0412404EB10740A3C03F893
:101310001140000100254C00641C1D554C1CE1B21D
:101320009142E6DB30BD000008B50121102000F03D
:10133000ABF94FF40050ADF8000010208DF8030019
:1013400003208DF8020069460448FFF7BBFE4FF406
:1013500000510248FFF741FF08BD000000100140A6
:1013600010B5074C07A002F067F9A07A18B1052064
:101370000A49086002E001200849086010BD000029
:10138000400100206C65617665206C6F7720706F7E
:10139000776572206D6F64650D0A000030010020D2
:1013A00000BFFEE77047704770B5002100230F2291
:1013B000C47804B3154C246804F4E064C4F5E06414
:1013C000210AC1F10403CA40447804FA03F1847885
:1013D0001440214309010E4C0678A155047804F00D
:1013E0001F050124AC4005786D11AD0005F1E02525
:1013F000C5F8004109E0047804F01F050124AC4061
:10140000044D0678761145F8264070BD0CED00E0DD
:1014100000E400E080E100E002490143024A11607B
:10142000704700000000FA050CED00E070B50226E0
:1014300047480068447846480068007800F07F001C
:10144000002844D1092C03D100F08CFD06465FE052
:10145000052C14D13E480068C0787F280BDC3C483E
:101460000068807838B93A480068808818B93848E8
:101470000068807A08B1082565E0002648E0032C62
:101480000ED133480068C078012807D13048006881
:10149000808818B900F08AFD064639E0022637E058
:1014A000012C35D12A480068C07801280DD1284880
:1014B0000068808848B926480068407A00F020001B
:1014C00018B100F0DBFB064622E0022620E02048AF
:1014D0000068007800F07F00012805D10B2C17D19F
:1014E00000F0E0FD064613E019480068007800F0BF
:1014F0007F0002280BD1012C03D100F0BFFB064670
:1015000006E0032C04D100F065FD064600E002264B
:101510004EB1E0B20F4A1268516988470646032E61
:1015200001D109250FE00EB108250CE006250021A8
:101530000948006880B2801C084A42F81010302028
:101540000749088000BF024909680D7270BD00009C
:101550002400002028000020505C00400060004073
:101560003600002010B511480068047A022C01D022
:10157000042C01D1082412E0032C01D0052C05D144
:10158000FFF734FB09480068047A08E0072C05D10E
:1015900007490968C8688047082400E0082403490F
:1015A00009680C7200F01CF810BD00002400002037
:1015B00028000020F0B5561C7510074E06EB4104BC
:1015C0002B4605E034F8047B20F8017B401C5B1EB1
:1015D000002BF7D1F0BD0000006000407047000014
:1015E00010B50D4890F82C10002000F0A3F90B481E
:1015F0000068007A082805D14002094908801020B7
:101600000849088005480068007A092801D10120AE
:1016100010BD0020FCE70000AC00002024000020EA
:10162000340000203600002010B5012001F0A0FC9D
:1016300001240B48046000200A49088008460088FD
:10164000074908600020091D08604FF4E050054973
:1016500008800846008802490860002010BD00008C
:10166000405C00402E00002029B1064AD2690243A6
:10167000044BDA6104E0034AD2698243014BDA6128
:10168000704700000010024029B1064A92690243E7
:10169000044B9A6104E0034A92698243014B9A61C8
:1016A000704700000010024030B5002100220024E5
:1016B00000232D4D6D6805F00C0121B1042905D0E2
:1016C000082923D105E0294D056022E0274D05605A
:1016D0001FE0254D6D6805F47012234D6D6805F40B
:1016E0008034022505EB92421CB9214D554305601B
:1016F0000BE01D4D6D6805F400351DB11C4D5543C3
:10170000056002E0194D5543056002E0174D056084
:1017100000BF00BF144D6D6805F0F0010909154DBB
:101720006B5C0568DD4045600F4D6D6805F4E06158
:10173000090A104D6B5C4568DD4085600A4D6D6897
:1017400005F46051C90A0B4D6B5C4568DD40C5600E
:10175000054D6D6805F44041890B074D6B5CC5680C
:10176000B5FBF3F5056130BD0010024000127A00B0
:1017700000093D0000000020100000200149086021
:1017800070470000D800424270B50546072D01D0D1
:101790002E4805702D48007808284ED2DFE800F06A
:1017A00004111A202B384E4F2948006828B900F040
:1017B00053F806202549087002E0052023490870E7
:1017C00041E000F049F80420204908700120204938
:1017D000086038E002201D4948700320087032E09C
:1017E0001A484078401E194948700846407808B9A0
:1017F0000420087027E01748006884B244F0100401
:10180000144804600520114908700A2048701AE045
:101810000E484078401E0D4948700846407858B937
:101820000C48006884B224F010040A4804600620C2
:10183000087000200649086005E000BF00BF0620D0
:101840000249087000BF00BF70BD000035010020D4
:1018500038010020405C004010B50748006884B2A1
:1018600024F0040404480460FFF77AFD4FF43F407D
:101870000149086010BD0000405C004010B50948F7
:10188000006805280CD1084801680068401C064A19
:101890001060052904D1002011460860FFF752FBB3
:1018A00010BD0000300100205400002070470000EF
:1018B0004FF6F8710140014A11607047505C0040DA
:1018C00030B501460F4B1A78002014E003060E4C89
:1018D00004EB9353D3F8003C48F68F74234048F24E
:1018E00080042343C4B223430406074D05EB9454FC
:1018F000C4F8003C401C9042E8D341F08003034C04
:10190000236030BDA8000020005000404C5C004027
:1019100010B54A105300054A126892B202EBC00299
:10192000121D034C44F8123010BD0000505C004002
:101930000060004010B502460F48006880B200EB1E
:10194000C200801D0D4C04EB40033E290BDD481105
:1019500001F01F040CB9441EA0B24FF4004444EA45
:1019600080241C6007E0481001F001040CB1441C05
:10197000A0B284021C6010BD505C004000600040BA
:1019800030B50E4C04EB8003D3F8003C4BF68F745B
:1019900003EA040201F480530BB182F4805201F493
:1019A00000530BB182F4005242F4004343F0800331
:1019B000024D05EB8004C4F8003C30BD00500040EF
:1019C00010B50B4B03EB8002D2F8002C4BF68F7353
:1019D00002EA030181F4805181F4005141F4004294
:1019E00042F08002024C04EB8003C3F8002C10BDCF
:1019F0000050004010B54A105200044B1B689BB2C7
:101A000003EBC003024C44F8132010BD505C0040AF
:101A100000600040044A126892B202EBC002921CBD
:101A2000024B43F812107047505C004000600040C9
:101A300030B50E4C04EB8003D3F8003C48F6BF747D
:101A400003EA040201F010030BB182F0100201F06E
:101A500020030BB182F0200242F4004343F08003E4
:101A6000024D05EB8004C4F8003C30BD005000403E
:101A700010B50B4B03EB8002D2F8002C48F6BF7375
:101A800002EA030181F0100181F0200141F40042DB
:101A900042F08002024C04EB8003C3F8002C10BD1E
:101AA0000050004010B5074B03EB8002D2F8002C29
:101AB00048F68F131A400A43024C04EB8003C3F824
:101AC000002C10BD0050004010B500F001F810BD12
:101AD0000CB50020019000903348006840F480303D
:101AE0003149086000BF3048006800F400300090C1
:101AF0000198401C0190009818B90198B0F5A06FAA
:101B0000F1D12948006800F4003010B101200090A4
:101B100001E0002000900098012843D1234800688C
:101B200040F01000214908600846006820F00300DA
:101B300008600846006840F0020008601A484068E3
:101B4000194948600846406848600846406840F4C3
:101B5000806048600846406820F47C104860084671
:101B6000406840F4E81048600846006840F0807023
:101B7000086000BF0C48006800F000700028F9D031
:101B80000948406820F0030007494860084640685B
:101B900040F00200486000BF0348406800F00C00BD
:101BA0000828F9D10CBD00000010024000200240BE
:101BB00010B50020FFF7E2FD0121C805FFF754FD35
:101BC00010BD000038B501242948006880B2001D0E
:101BD000284931F8100080B201EB400000902648FF
:101BE0000068007A092832D00098007822490968F4
:101BF00008700098401C0090009800781E49096801
:101C000048700098401C0090009800EB4400009041
:101C1000009931F8020B0091FEF7F5FD16490968AD
:101C20004880009800EB44000090009931F8020BC6
:101C30000091FEF7E8FD104909688880009800EBE4
:101C400044000090009800880B490968C880012072
:101C500009490968087208480068C08810B9FFF788
:101C6000E5FB01E0FFF720F8FFF7BAFC38BD000004
:101C7000505C004000600040240000202DE9F04747
:101C800054480068007800F07F08B8F1000F0AD1CE
:101C900050480068407A00F0DF004E4909684872F9
:101CA0000020BDE8F087B8F1020F7CD149480068F8
:101CB000408818B947480068007908B10220F0E769
:101CC000DFF8149143480068477927F080052C46D7
:101CD00040480068407900F0800038B13F4901EB8E
:101CE0008400D0F8000C00F0300606E03B4901EB20
:101CF0008400D0F8000C00F4405699F80000A84287
:101D000004D91EB133480068807A08B90220C8E7B8
:101D100007F0800080B1314901EB8400D0F8000C5D
:101D200000F0300010284BD1E0B2FEF7D1FEE0B257
:101D30003021FFF77DFE43E0284901EB8400D0F815
:101D4000000C00F44050B0F5805F39D1E4B9244A6A
:101D500092F82C10E0B2FFF7EDFD204A02EB84016F
:101D6000D1F8001C4BF68F7201EA020080F480501B
:101D700080F4005040F4004141F08001174B03EB28
:101D80008402C2F8001C1BE0E0B2FEF787FE134A93
:101D900002EB8401D1F8001C4BF68F7201EA0200BD
:101DA00080F4805000E011E080F4005040F40041E5
:101DB00041F08001094B03EB8402C2F8001C00BF14
:101DC000084909684869804700206AE700BF022087
:101DD00067E7000024000020A80000200050004019
:101DE000AC0000203000002010B504462CB90120C2
:101DF000064909680882002010BD0549096808687D
:101E00008047024800680A30F6E7000024000020FE
:101E10003000002010B5024606480068438A32B9F7
:101E20008888C01A034C24682082002010BD0868EE
:101E30001844FBE72400002010B504462CB901200B
:101E4000064909680882002010BD054909688868AC
:101E50008047024800680C30F6E7000024000020AC
:101E60003000002010B504462CB902203949096819
:101E70000882002010BD00203749088035480068DE
:101E8000007800F07F0018BB32490968487A00F0FA
:101E9000200131B13049097841F002012E4A117018
:101EA00005E02D49097801F0FD012B4A117000F081
:101EB000400131B12849097841F00101264A1170E9
:101EC00005E02549097801F0FE01234A11703AE046
:101ED00020480068007800F07F00012801D11E48EA
:101EE000C8E71C480068007800F07F00022828D16D
:101EF000184A1268517901F00F0001F080027AB19E
:101F0000164B03EB8002D2F8002C02F03002102AAC
:101F100016D1114A127842F001020F4B1A700FE0ED
:101F20000E4B03EB8002D2F8002C02F44052B2F5C3
:101F3000805F05D1084A127842F00102064B1A7000
:101F400001E0002096E706490968086980470248D1
:101F500090E70000240000201C00002000500040FA
:101F60003000002010B50E480068C0780D4949784F
:101F7000884213DC0A480068807878B9084800680D
:101F8000808858B906480068C07805490968887291
:101F90000549096848688047002010BD0220FCE719
:101FA00024000020A80000203000002010B50748C1
:101FB0000068407A40F020000449096848720449EA
:101FC0000968C8698047002010BD00002400002077
:101FD000300000202DE9F0412E480068467926F0B7
:101FE00080073C462B480068407900F0800038B1FB
:101FF000294901EB8400D0F8000C00F0300506E020
:10200000254901EB8400D0F8000C00F4405523482A
:102010000078A04208D91F480068408820B91DB147
:102020001C480068807A10B90220BDE8F08106F0F3
:102030008000A0B1184A02EB8401D1F8001C48F6D8
:10204000BF7201EA020080F0100040F4004141F04C
:102050008001114B03EB8402C2F8001C14E00E4A0D
:1020600002EB8401D1F8001C4BF68F7201EA0200EA
:1020700080F4805040F4004141F08001064B03EBB6
:102080008402C2F8001C00BF0549096888698047BE
:102090000020CAE72400002000500040A8000020D3
:1020A0003000002010B5174B1B68D978154B1B6802
:1020B0005879154B1B689A69904704461148006887
:1020C000807AE8B13CB90F480068007918B90D482A
:1020D0000068807808B1022010BD8CB90B490968EE
:1020E000C868804707480068407906490968C8728F
:1020F00004480068C0780349096808730020EBE7CA
:102100000220E9E724000020280000203000002001
:1021100038B50025002000902148006884B200BF37
:1021200009E0204901EB8500D0F8000C80B21E497F
:1021300041F825006D1C082DF3D344F48064184841
:10214000046044F00104046024F00104046000BF52
:102150001348001D006800F480600028F8D04FF696
:10216000FF300F49091D0860002509E00E4850F8AE
:10217000250080B20B4A02EB8501C1F8000C6D1CF2
:10218000082DF3D344F0080405480460006884B2C5
:1021900044F0040402480460FEF77CFF38BD0000F0
:1021A000405C00400050004030070020042808D167
:1021B0004FF0E021096941F004014FF0E022116184
:1021C00007E04FF0E021096921F004014FF0E0221F
:1021D000116170477047000010B504466FF00400AD
:1021E000FFF7E4FFE11704EB5171C1F3C701074AA0
:1021F00011701046007800EB4001C1EBC0104FF6A3
:10220000FF7101EAC0000249088010BD18000020DB
:102210001A00002010B51348006840F00100114971
:10222000086008464068104908400E494860084662
:1022300000680E4908400B4908600846006820F411
:10224000802008600846406820F4FE0048604FF493
:102250001F008860FFF738FC4FF0006004490860F9
:1022600010BD0000001002400000FFF8FFFFF6FE66
:1022700008ED00E0F0B50C46154600220021068C62
:102280004FF6FE773E400684028B018C4FF60C76AB
:1022900032407E1C06EA03162E433243104EB042F3
:1022A0000ED0104EB0420BD0B0F1804F08D00E4E81
:1022B000B04205D00D4EB04202D00D4EB04206D114
:1022C0004FF6FD76314044F00106314305E04FF60C
:1022D000F576314044F00106314302830184F0BDBC
:1022E000002C014000340140000400400008004080
:1022F000000C0040F0B50C461546002200210026D7
:10230000078C4FF6EF7C07EA0C070784028B018CE1
:102310004FF6FF7707EA041640F6FF473A404FF6BC
:10232000FF7707EA03373A434FF6FF7707EA0527B7
:102330003A43114FB8420ED0104FB8420BD0B0F113
:10234000804F08D00E4FB84205D00E4FB84202D091
:102350000D4FB84206D14FF6DF77394046F01007EF
:10236000394305E04FF65F77394044F010073943B1
:1023700002830184F0BD0000002C014000340140C4
:102380000004004000080040000C0040F0B50C467E
:102390001546002200210026078C4FF6FF6C07EA45
:1023A0000C070784828B018C4FF6FF7707EA04261F
:1023B0004FF60C773A404FF6FF7707EA03172F43A3
:1023C0003A43114FB8420ED0104FB8420BD0B0F183
:1023D000804F08D00E4FB84205D00E4FB84202D001
:1023E0000D4FB84206D14FF6FF57394046F480777B
:1023F000394305E04FF2FF57394044F480773943C1
:1024000082830184F0BD0000002C014000340140B3
:102410000004004000080040000C0040F0B50C46ED
:102420001546002200210026078C4EF6FF7C07EAA5
:102430000C070784828B018C4FF6FF7707EA04367E
:1024400040F6FF473A404FF6FF7707EA05273A4341
:102450004FF6FF7707EA03373A43114FB8420ED0E1
:10246000104FB8420BD0B0F1804F08D00E4FB84299
:1024700005D00E4FB84202D00D4FB84206D14DF6EE
:10248000FF77394046F48057394305E047F6FF5758
:10249000394044F48057394382830184F0BD000001
:1024A000002C0140003401400004004000080040BE
:1024B000000C004030B589B005460C4601210420CF
:1024C000FFF7E2F801210846FFF7CEF80C20ADF83F
:1024D000040028208DF8070001A92A48FEF7F2FD24
:1024E000ADF81C50ADF818400020ADF81A00ADF85A
:1024F0001E0006A94FF0804000F026FB0820ADF832
:102500000C000020ADF80E000120ADF810000020F6
:10251000ADF812000F20ADF8140003A94FF0804071
:1025200000F020F901220821C80600F071F90C2002
:10253000ADF80C000220ADF80E000120ADF810003F
:102540000020ADF812000F20ADF8140003A94FF0E1
:10255000804000F007F901221921880700F058F99E
:102560001C208DF8080002208DF8090000208DF84D
:102570000A0001208DF80B0002A8FEF715FF09B034
:1025800030BD00000008014010B50821C80600F069
:10259000D8F840B10821C80600F0C4F810480088F7
:1025A000401C0F4908801021880600F0CAF840B18D
:1025B0001021880600F0B6F80A480088401C094936
:1025C00008800121880700F0BCF840B1012188078C
:1025D00000F0A8F800214FF0804000F0A6F810BDF0
:1025E000140000201600002030B589B005460C46C6
:1025F00001210220FFF738F801210420FFF744F8F9
:1026000001210820FFF740F801210846FFF73CF8B8
:10261000C020ADF8200018208DF8230003208DF88D
:10262000220008A92448FEF74DFD0320ADF8200044
:1026300008A92248FEF746FDADF81850ADF8144041
:102640000020ADF81A00ADF8160005A91C4800F0EE
:102650007BFA7020ADF804000120ADF806000220DE
:10266000ADF80C0001A9164800F0DCF801A91448E7
:1026700000F02EF901A9124800F08AF901A91048CA
:1026800000F0E0F908210E4800F018F908210C4884
:1026900000F070F908210A4800F0CAF9082108483A
:1026A00000F00EFA0121064800F030F8012104483C
:1026B00000F03BF809B030BD00080140000C0140BB
:1026C0000004004010B504210E4800F03AF801283B
:1026D00008D10D480088401C0B4908800421094896
:1026E00000F020F80121074800F02BF840B100214C
:1026F0004FF0804000F019F80121024800F012F874
:1027000010BD0000000800401400002021B1028824
:1027100042F08002028004E002884FF67F731A4084
:1027200002807047CA430282704721B1028842F09A
:102730000102028004E002884FF6FE731A40028014
:10274000704730B50246002000230024158A05EAB0
:102750000103958905EA010413B10CB1012000E0E1
:10276000002030BD70B505460C46244885420ED089
:10277000234885420BD0B5F1804F08D021488542CF
:1027800005D02148854202D02048854200D100E092
:1027900000BF208850B92389A28861882846FFF7A6
:1027A00069FDE188284600F0A3F925E02088042887
:1027B0000AD12389A28861882846FFF79BFDE1881A
:1027C000284600F09EF917E0208808280AD12389BE
:1027D000A28861882846FFF7D9FDE188284600F0E5
:1027E0009DF909E02389A28861882846FFF716FE33
:1027F000E188284600F09BF970BD0000002C0140E4
:10280000003401400004004000080040000C00407B
:102810001AB183890B43838102E083898B438381CF
:102820007047000070B5002400220023058C4FF68D
:10283000FE7635400584028C8388048B4FF68F75B5
:102840002C40B51E2C400D882C43751E2A400D8946
:102850002A434D882A43144DA8420BD0134DA84259
:1028600008D0134DA84205D0124DA84202D0124DF7
:10287000A84213D14FF6F7752A404D892A434FF6E7
:10288000FB752A408D882A434FF6FF652B404FF693
:10289000FF552B408D892B43CD892B4383800483A7
:1028A000CD888586028470BD002C01400034014033
:1028B0000040014000440140004801400A46002118
:1028C000018B4FF6F77319401143018370470000E5
:1028D00070B5002400220023058C4FF6EF763540BA
:1028E0000584028C8388048B48F6FF752C404FF6D4
:1028F000FF452C400D884FF6FF7606EA05252C4350
:102900004FF6DF752A400D8906EA05152A434D88E2
:1029100006EA05152A43154DA84202D0144DA842D7
:102920001DD14FF67F752A404D894FF6FF7606EA96
:1029300005152A434FF6BF752A408D8806EA05150E
:102940002A434FF6FF352B404FF2FF752B408D8900
:1029500006EA85052B43CD8906EA85052B4383804E
:102960000483CD880587028470BD0000002C0140DF
:10297000003401400A460021018B4FF2FF731940D9
:102980004FF6FF7303EA02231943018370470000E7
:1029900070B5002400220023058C4FF6FF663540F9
:1029A0000584028C8388848B4FF68F752C404FF6FC
:1029B000FC752C400D882C434FF6FF552A400D899D
:1029C0004FF6FF7606EA05252A434D8806EA0525D7
:1029D0002A43154DA84202D0144DA8421DD14FF2F2
:1029E000FF752A404D894FF6FF7606EA05252A43F2
:1029F0004FF6FF352A408D8806EA05252A434EF614
:102A0000FF752B404DF6FF752B408D8906EA0515A5
:102A10002B43CD8906EA05152B4383808483CD881B
:102A20008587028470BD0000002C01400034014005
:102A30000A460021818B4FF6F773194011438183B9
:102A40007047000070B5002200230024058C4EF66C
:102A5000FF7635400584038C8488828B48F6FF75A9
:102A60002A404FF6FF452A400D884FF6FF7606EACA
:102A700005252A434DF6FF752B400D8906EA0535DD
:102A80002B434D8806EA05352B430B4DA84202D057
:102A90000A4DA84208D14BF6FF752C408D894FF6A0
:102AA000FF7606EA85152C4384808283CD88A0F8C2
:102AB0004050038470BD0000002C014000340140F0
:102AC0000A460021818B4FF2FF7319404FF6FF73C6
:102AD00003EA022319438183704781867047018787
:102AE000704781877047A0F8401070478184704715
:102AF000028B4FF6F3731A400283028B0A43028360
:102B00007047028B4FF2FF331A400283028B4FF65D
:102B1000FF7303EA01231A4302837047828B4FF647
:102B2000F3731A408283828B0A4382837047828BBD
:102B30004FF2FF331A408283828B4FF6FF7303EA12
:102B400001231A4382837047002202881D4B98425A
:102B50000ED01D4B98420BD0B0F1804F08D01B4BCC
:102B6000984205D01A4B984202D01A4B984204D191
:102B70004FF68F731A404B881A43174B984207D071
:102B8000164B984204D04FF6FF431A40CB881A43A5
:102B900002808B8883850B8803850A4B98420BD073
:102BA000094B984208D00E4B984205D00D4B9842E5
:102BB00002D00D4B984201D10B7A03860123838208
:102BC00070470000002C0140003401400004004028
:102BD00000080040000C00400010004000140040BD
:102BE00000400140004401400048014010B540F25F
:102BF00025510C4800F0F1F870B10A4800F0A8F92E
:102C0000C4B22146074800F0A8F900BF402105489A
:102C100000F0D6F80128F9D14021024800F060F810
:102C200010BD00000038014010B586B004460121F7
:102C30000420FEF729FD01218803FEF725FD01216F
:102C40000846FEF721FD4FF40070ADF81400032094
:102C50008DF8160018208DF8170005A91E48FEF7FC
:102C600031FA4FF48060ADF8140004208DF817009D
:102C700005A91948FEF726FA01940020ADF80800CE
:102C8000ADF80A00ADF80C00ADF810000C20ADF85E
:102C90000E0001A9114800F0EFF801210F4800F0E3
:102CA00028F840210D4800F01BF8012240F2255180
:102CB0000A4800F0BCF825208DF8000003208DF8AC
:102CC00001008DF8020001208DF803006846FEF730
:102CD0006BFB06B010BD0000000801400038014049
:102CE00001F40072B2F5007F00D100BFCA43028038
:102CF000704721B1828942F40052828104E08289C6
:102D00004DF6FF731A4082817047000010B5002015
:102D10000E49A1F80204A1F800040D4908800D48ED
:102D200001790DA000F088FC0A48417910A000F05C
:102D300083FC0848817915A000F07EFC05480168F5
:102D400019A000F079FC012010BD00005C010020FA
:102D500038000020A00000206C696E65636F646914
:102D60006E672E666F726D61743A25640D0A0000FD
:102D70006C696E65636F64696E672E7061726974E9
:102D800079747970653A25640D0A00006C696E6586
:102D9000636F64696E672E64617461747970653AFB
:102DA00025640D0A000000006C696E65636F64693C
:102DB0006E672E626974726174653A25640D0A004B
:102DC00002460020B1F5007F00D100BF13880B4000
:102DD0000BB1012000E00020704770B502460024CE
:102DE00000230025002040F66A16B14200D100BF42
:102DF000C1F3421501F01F03012606FA03F3012D6A
:102E000002D19689334006E0022D02D1168A334062
:102E100001E0968A33400C12012606FA04F4168863
:102E2000344013B10CB1012000E0002070BDF0B5BA
:102E30000346002400260025002040F66A17B94208
:102E400000D100BF1846C1F3421401F01F0601274C
:102E500007FA06F5012C01D10C3004E0022C01D157
:102E6000103000E014301AB107682F43076002E009
:102E70000768AF430760F0BD2DE9F04786B005460F
:102E80000E460024A24600BFA1460027B08900B12B
:102E900000BF2F462C8A4CF6FF700440F088044394
:102EA0002C82AC894EF6F3100440B0883189084377
:102EB000718908430443AC81AC8A4FF6FF4004405B
:102EC000B0890443AC8201A8FEF7EEFB1F4887429D
:102ED00002D1DDF810A001E0DDF80CA0A88900F413
:102EE000004040B10AEBCA0000EB0A10316849000B
:102EF000B0FBF1F807E00AEBCA0000EB0A103168FA
:102F00008900B0FBF1F86420B8FBF0F0040120095F
:102F1000642101FB1089A88900F4004040B13220EF
:102F200000EBC900B0FBF1F000F00700044308E03B
:102F3000322000EB09106421B0FBF1F000F00F002B
:102F400004432C8106B0BDE8F08700000038014042
:102F500001468888C0F308007047C1F308028280E8
:102F6000704710B54FF48020FEF744F810BD000004
:102F700010B504461CB104A000F05EFB02E008A0FE
:102F800000F05AFB10BD00007573622070756C6C08
:102F900020757020656E61626C650D0A000000008E
:102FA0007573622070756C6C207570206469736134
:102FB000626C650D0A00000010B5084808490860F9
:102FC000022009680872074807490860074808494D
:102FD0000860054909680868804710BD4001002065
:102FE00024000020AC00002028000020DC0000208D
:102FF000300000200EB54FF48020FDF7FBFF4FF4AA
:103000008020009008208DF8050001208DF8060032
:103010006846FDF7F5FF14208DF8080001208DF8B3
:10302000090000208DF80A0001208DF80B0002A88D
:10303000FEF7BAF92A208DF8080000208DF8090063
:1030400002A8FEF7B1F90EBD10B588B0002469489A
:103050000068694908800846008800F400706749E4
:103060000988084050B14FF6FF5062490860644833
:103070000078401C62490870FEF700FC5E4800883A
:1030800000F400405D490988084008B1FDF7C2FB23
:103090005948008800F4806058490988084030B1D8
:1030A0004FF6FF30534908605649486880475248F8
:1030B000008800F4005051490988084018B14DF6C5
:1030C000FF704C4908604C48008800F480504B4920
:1030D0000988084030B14EF6FF704649086000206C
:1030E000FEF752FB4448008800F400604349098819
:1030F000084060B14448007810B1FFF709F802E0D9
:103100000220FEF741FB4FF2FF703A4908603A484F
:10311000008800F48070394909880840002866D08A
:103120004FF6FF6033490860081D006800F4004056
:10313000002856D035480068401C344908600846CD
:103140000068032850D92B48001F006800F00800D1
:10315000002849D12748001F006880B22C49086028
:10316000002408E02B4901EB8400D0F8000C80B269
:103170004DF82400641C082CF4D32548006840F066
:103180000100234908600846006880B21949091FF8
:1031900008601F48006820F001001D4908600846CB
:1031A000006880B21349091F086000BF1148006819
:1031B00000F480600028F9D04FF6FF300D49086018
:1031C000002408E05DF8240080B2124A02EB84017A
:1031D000C1F8000C641C082CF4D300200B490860D3
:1031E00002E00020094908600720FEF7CDFA08B088
:1031F00010BD0000445C0040580000202E0000205C
:103200005A000020AC000020340100205C000020A7
:10321000600000200050004010B5FFF715FF10BD02
:1032200010B5044601210420FEF72EFA3CB10F48E8
:10323000006880B220F002000C49086014E00B48DE
:10324000006880B240F00200084908600848006841
:1032500020F47F20064908600846006840F44C309E
:10326000086000200349086010BD0000405C004079
:1032700004080140B00121420020064908604FF4D3
:103280003F4005490880084600880249091F086038
:1032900000207047445C00402E0000202DE9F041E2
:1032A00004460E46002504F07F00FDF7A9FF054601
:1032B00004F07F00FDF794FF07462A463946304662
:1032C000FEF778F92846BDE8F081000030B50346E6
:1032D0000A46002133E0585C1A4C248804F4004468
:1032E0005CBB184C248804F4804464B10A2803D0E1
:1032F0000024144D2C8020E0124C248844F4004417
:10330000104D2C8019E00D2806D10E4C248844F471
:1033100080440C4D2C8010E00A4C2488C4F30D042A
:10332000094D2855074C2488641C064D2C802C46DA
:103330002488C72C01DD00242C804C1CE1B2914272
:10334000C9DB30BD38000020280600200A49B1F84A
:103350000014094A50541146B1F80014491CA2F84F
:1033600000141146B1F80014B1F5806F02D10021AC
:10337000A2F80014704700005C01002000BFFEE7C7
:10338000F0B5144604F1010C4FEA6C07DFF824C0D5
:103390000CEB41033D460AE00678401C90F800C063
:1033A00046EA0C2223F8022B9B1C401C6D1E002DAC
:1033B000F2D1F0BD0060004070B504460025212C1C
:1033C00008D112480068007800F07F0021280ED153
:1033D0000F4D0CE0202C0AD10C480068007800F05A
:1033E0007F00212800D10B4D20200B4908700DB91A
:1033F000022070BD0548006885610021034800680F
:1034000041820020A8470020F3E7000024000020AC
:1034100045340008D53500089C00002010B504464E
:1034200002492046FEF7F6FC10BD0000080100200E
:1034300010B5044602492046FEF7ECFC10BD000022
:1034400000010020014629B90820034A12681082B1
:10345000002070470148FCE724000020A000002065
:1034600070B5054606480068C478042C01DD0020CC
:1034700070BD044800EBC4012846FEF7CBFCF7E71B
:1034800024000020100100200246002901DD022056
:103490007047012A01DD0220FAE70020F8E700006A
:1034A000014608480068007800F07F00212807D115
:1034B000022901D100207047222901D10020FAE71A
:1034C0000220F8E72400002010B5002034490968E4
:1034D00088723448C07932490968487200203049FE
:1034E0000968C872FEF7E4F94FF400710020FEF796
:1034F000D9FA10210020FEF79BFA40210020FEF7A8
:1035000007FA80210020FEF775FA0020FDF7FAFA8D
:10351000254890F82C100020FEF70CFA0020FEF74A
:103520004FFA00210120FEF7BDFAC0210120FEF76D
:1035300061FA20210120FEF77BFA00210120FEF72D
:103540001FFA4FF4C0610220FEF7ACFA4FF480710D
:103550000220FEF74FFA00210220FEF711FA202187
:103560000220FEF765FA00210320FEF79BFA4FF4D4
:1035700088710320FEF7CCF940210320FEF7DAF929
:103580004FF440510320FEF7FBF900210320FEF722
:103590004FFA0020FEF794F901200449086010BD9D
:1035A00024000020A6410008AC00002030010020CB
:1035B0000348817A11B10521024A11607047000069
:1035C00040010020300100200420014908607047BC
:1035D00030010020014629B90820034A12681082F0
:1035E000002070470148FCE724000020A0000020D4
:1035F00010B505480078202804D1FFF787FB00208C
:103600000149087010BD00009C00002070470000B8
:1036100010B5FDF717FE0020054909688872FEF70E
:1036200003F8FFF729FE00200249086010BD0000E2
:1036300024000020300100200FB4054B10B503A971
:10364000044A029800F0DCF810BC5DF814FB00009E
:10365000853F00083C01002037B514460846064B5C
:103660006A46214600F0CCF804466946002000F086
:103670005EFC20463EBD00002F3F000802E008C867
:10368000121F08C1002AFAD170477047002001E0DC
:1036900001C1121F002AFBD1704700002DE9FF5F16
:1036A000DDE90220010DDDF838B0024318D044F600
:1036B0001050A1F2FF3141430D140F98012820D082
:1036C000A5EB0B00401C5FEA000A4FF00004474ED8
:1036D000DFF81C91A046504616D5CAF1000728E035
:1036E0000F98012443A2012808D0002100980F9BC5
:1036F000C0E90021C0E90243BDE8FF9F6FEA0B016A
:10370000F4E7CBF10000DEE7074612E0F80707D048
:103710002246334640464946FCF7E4FD804689464A
:103720002246334610461946FCF7DCFD04460E4699
:103730007F10002FEAD1DDE90201BAF1000F424605
:103740004B4602DAFCF7CEFD01E0FCF73DFE0446F5
:103750000E460022284BFCF7DBFE03D84FF0FF306B
:10376000014607E00022254B20463146FCF713FDB9
:10377000FCF7E2FF102409E0002C0ADB0A220023F8
:10378000FCF7F4FE019B30321A55641E50EA010228
:10379000F2D1641C019AC4F1110314440F9A012A56
:1037A00003D0012208430DD10AE0084304D00020D1
:1037B0004FF0110B0F9080E7A3EB0B056D1E0DE092
:1037C0005B4504DD4FF0000205F1010504E003DA7A
:1037D0004FF00002A5F10105002AECD000980F99E6
:1037E000C0E90231C0E9004586E70000000024403E
:1037F0000000F03F300000000000F0430000E03F18
:103800002DE9FF4F95B09B468946064600250FE2FD
:10381000252877D100242746F84A0121059400E0A5
:10382000044316F8013F203B01FA03F01042F7D1A0
:1038300030782A2811D06FF02F033078A0F13002B1
:10384000092A16D8059A44F0020402EB820203EB1F
:1038500042021044761C0590EFE759F8042B0592BC
:10386000002A03DA504244F40054059044F0020464
:10387000761C30782E2816D116F8010F44F0040477
:103880002A280DD06FF02F023078A0F13003092BD9
:1038900009D807EB870302EB4303C718761CF3E74D
:1038A00059F8047B761C30786C280FD006DC4C2845
:1038B00017D068280DD06A2814D104E0742810D0DD
:1038C0007A280FD10DE044F400140AE044F4801487
:1038D00001E044F440147278824202D104F580146D
:1038E000761C761C307866280BD013DC582877D0ED
:1038F00009DC002875D04528F6D04628F4D04728A2
:103900001AD19DE118E0632835D0642879D0652864
:1039100012D195E1702873D008DC6728F1D06928AE
:103920006FD06E280DD06F2806D1B5E073282CD04B
:10393000752875D0782874D05A46179990476D1C11
:1039400075E1C4F30250022809D003280DD0D9F83C
:10395000001004280DD00D6009F1040967E1D9F8C1
:103960000010EA17C1E90052F6E7D9F800100D80FF
:10397000F2E70D70F0E719F8041B8DF80010002035
:103980008DF80100EA46012003E059F804AB4FF03E
:10399000FF3061074FF0000102D40DE008F1010192
:1039A0008846B9420FDA8045F8DB1AF8081000297A
:1039B000F4D108E008F1010188468142FADB1AF8E7
:1039C00008100029F6D105985B46A0EB08072146B0
:1039D0003846179A00F094FA284400EB080507E0EF
:1039E0004DE029E10DE01AF8010B5A46179990476E
:1039F000B8F10108F7D25B4621463846179A13E121
:103A000042E00A220092C4F302524FF0000A022A56
:103A100008D059F804CB032A4FEAEC710AD00DE024
:103A200029E02AE009F1070121F00702F2E802C1CA
:103A3000914609E00FFA8CFC4FEAEC71042A03D19D
:103A40004FFA8CFC4FEAEC71002907DA0A46002194
:103A5000DCF1000C61EB02012D2202E0220504D50D
:103A60002B228DF80420012203E0E20701D020225E
:103A7000F7E7904659E00A2102E010220DE01021FC
:103A80004FF0000A00910BE010224FF0000A44F0C2
:103A900004040827009203E008224FF0000A009275
:103AA000C4F30252022A05D059F804CB0021032A9C
:103AB00008D009E009F1070121F00702F2E802C18C
:103AC000914605E01FFA8CFC042A01D10CF0FF0C92
:103AD0004FF00008220728D5702806D0009B83F0FD
:103AE000100353EA0A0305D00EE040228DF80420AB
:103AF000012208E05CEA010206D030228DF80420A1
:103B00008DF8050002229046009B83F0080353EADB
:103B10000A030AD15CEA010201D1620705D530220D
:103B20008DF804204FF001087F1E582804D034A0DF
:103B300003900EA802900DE036A0F9E753466046C8
:103B4000009AFCF713FD84460398825C0298401E9D
:103B5000029002705CEA0100F0D1029806A9081AEE
:103B600000F1200A600702D524F4803400E0012728
:103B7000574502DDA7EB0A0000E0002000EB0A0138
:103B8000009005984144401A0590E00306D45B4636
:103B90002146179A059800F0B3F90544002706E07E
:103BA00001A85A46C05D179990476D1C7F1C474578
:103BB000F6DBE0030CD55B462146179A059800F02A
:103BC0009FF9054404E030205A46179990476D1C30
:103BD0000099481E00900029F5DC08E0029802993F
:103BE0005A460078491C0291179990476D1CBAF10A
:103BF0000001AAF1010AF1DC65E1000009280100D9
:103C00003031323334353637383961626364656652
:103C10000000000030313233343536373839414214
:103C2000434445460000000000F058F90544761C66
:103C3000307800287FF4ECAD19B02846BDE8F08F4D
:103C4000620700D4062709F1070222F0070CFCE8FE
:103C50000223E14603F000485FEA080C02D00FF2AD
:103C6000702C0DE05FEA045C02D50FF2682C07E0CF
:103C70005FEAC47C02D00FF2602C01E0AFF2700C5E
:103C80004FF0FF3823F00043CDF850C065280CD02A
:103C900006DC452809D046281DD047283DD13DE007
:103CA000662818D067287ED138E00021112F01DB6B
:103CB000112000E0781CCDE9000106A90EA8FFF74D
:103CC000EDFCDDE90F010E9A03910021009207F14E
:103CD000010A04914DE04FF000400097CDE901103A
:103CE00006A90EA8FFF7DAFCDDE90F0203920E9B8E
:103CF00011990022DDF80CA00093049211B9791CEF
:103D000000EB010AB7EB0A0004D4C0F1FF3007F161
:103D1000010A0490AAEB0700019044E0012F00DAA9
:103D200001270021112F01DD112000E03846CDE9E7
:103D3000000106A90EA8FFF7B1FCDDE90F010E9AFC
:103D40000391002104910092BA4621070CD40399F3
:103D5000514500DA8A46BAF1010F05DD009AAAF151
:103D60000101515C302908D0B84202DA10F1040F89
:103D700006DA0121CDE9011015E0AAF10101E9E718
:103D8000002805DC049901440491AAEB000102E03B
:103D9000411C514500DD8A460499401A401C01909F
:103DA0004FF000400290200704D40198504501DBF9
:103DB000CDF8048000208DF84F0002980DF14F07D8
:103DC000B0F1004F25D02B200E9002984FF0020842
:103DD00000280CDA404202902D200E9007E00A21C4
:103DE0000298FCF7ADFB3031029007F8011DB8F1E5
:103DF0000001A8F10108F2DC02980028EFD1791E39
:103E00000E980870307800F0200040F0450007F868
:103E1000020D12A8C01B00F107081498007800B129
:103E2000012000EB0A01019801EBE0710598414483
:103E3000401A401E0590E00306D45B462146179ABF
:103E4000059800F05DF805441498007818B15A46BA
:103E5000179990476D1CE00324D55B462146179ABD
:103E6000059800F04DF805441CE00498002807DB95
:103E7000DDE90301884203DD0098405C179901E009
:103E8000179930205A469047049805F10105401CC7
:103E900004900198401E019004D12E205A46179993
:103EA00090476D1CBAF10001AAF1010ADDDC05E0C2
:103EB00017F8010B5A46179990476D1CB8F100018D
:103EC000A8F10108F4DC5B462146179A0598ABE699
:103ED0002D0000002B000000200000002DE9F04123
:103EE000044600251E461746880404D405E03946DA
:103EF0002020B0476D1C641EF9D52846BDE8F0812E
:103F00002DE9F041044600251E469046C80301D520
:103F1000302700E02027880404D505E041463846D4
:103F2000B0476D1C641EF9D52846BDE8F0810A68CB
:103F3000531C0B60107070470146114A12884A43A7
:103F40004FF0E0235A6100229A611A46126942F04A
:103F500001021A6100BF4FF0E022106900F0010277
:103F60001AB100F48032002AF5D04FF0E022126935
:103F700022F001024FF0E0231A6100229A6170479B
:103F80001A00002070B504460D46E1B20548FEF760
:103F9000E4FF00BF80210348FEF712FF0028F9D09C
:103FA000204670BD0038014000F02EF810B54FF4E7
:103FB0001650FEF739FE4FF4E160FFF7BDFF002019
:103FC000FFF72EF94FF42F70FFF7B6FF0120FFF730
:103FD00027F9FDF7EDFDFFF70DF8FEF7EDFF10BD3A
:103FE00010B50020064908800649088000214FF0DE
:103FF0008040FEF77BFD01218807FEF796FB10BD90
:1040000014000020160000201CB500244820FEF7F4
:10401000E3F84FF4A060FDF7FFF9FDF785F9FFF72E
:10402000C5FF41F61F4141F28830FEF743FA4721B0
:1040300040F2E730FEF7D8FA40F2E7313748FEF7B2
:104040004CFD00213548FEF74AFD00213348FEF7BC
:1040500048FD40F2E7313148FEF745FD5CE0601C69
:1040600084B2B4F5A07F03DD00242DA000F074F825
:104070004FF08040808C18BB4FF080492C4800885E
:10408000FCF71AFA83464946FCF753F88246FCF7D8
:104090002CFA05460E4627480088FCF70DFA8346A1
:1040A0004946FCF746F88246FCF71FFA07463A46AF
:1040B0000B4621A0CDE9005600F04EF8FFF790FF27
:1040C000142094FBF0F100FB1140A0B904EB440074
:1040D000FCF7E9F981464846FCF7F3F985B2294631
:1040E0000E48FEF7FAFC4846FCF7EBF985B2294684
:1040F0000A48FEF7F8FC0A2094FBF0F100FB11409F
:1041000038B91448006808B9012000E000201149BE
:1041100008606420FFF710FFA1E7000000040040E2
:104120000D0A526573746172742E2E2E0D0A0000F2
:1041300016000020140000204672657175656E63DC
:1041400079203D204C3A25662020523A25660D0AFA
:1041500000000000B40122420FB438B505A8009059
:104160000B48009A0499FFF777FA0020009008485E
:10417000FBF7D8FF85B2002405E00549085DFFF78D
:10418000E5F8601C84B2AC42F7DB38BC5DF814FB88
:104190006005002012010002020000408304405725
:1041A00000020102030109024300020100C03209BA
:1041B0000400000102020100052400100105240191
:1041C00000010424020205240600010705820308F9
:1041D00000FF09040100020A000000070503024075
:1041E0000000070581024000000403090426035370
:1041F0000054004D006900630072006F0065006CA0
:104200000065006300740072006F006E0069006357
:104210000073003203530054004D0033003200207D
:10422000005600690072007400750061006C002087
:104230000043004F004D00200050006F00720074DA
:10424000002000200000000068420008000000205C
:1042500040010000AC070008F042000840010020C7
:10426000100A00008C360008412D010203040400EE
:1042700009260607080902040608141A03531254F3
:10428000124D1233021F3213450F0C1C08A71304E2
:104290000A11D5245133C20112081A04071311362A
:1042A0001408C9341408F1351B080D0C13B9331B5D
:1042B00008A1101A89041A31041A1D041A61044154
:1042C000324029441AB12C0916741AC91C1394419E
:1042D0003308121AA60832431AE90832041AED0804
:1042E00032261313422A08E0223A73201A299281B7
:04000005080000ED02
:00000001FF
