:020000040800F2
:10000000500E0020010100081D1B00080B01000814
:100010001B1B00089B0E0008F52D000800000000C7
:10002000000000000000000000000000111E000899
:10003000DD13000800000000851C000815250008DD
:100040001B0100081B0100081B0100081B01000820
:100050001B0100081B0100081B0100081B01000810
:100060001B0100081B0100081B0100081B01000800
:100070001B0100081B0100081B0100081B010008F0
:100080001B0100081B0100081B0100081B010008E0
:10009000512D00081B0100081B0100081B0100086E
:1000A0001B0100081B0100081B0100081B010008C0
:1000B000952500081B010008CD2600081B0100083B
:1000C0001B0100081B0100081B0100081B010008A0
:1000D0001B010008552A00081B0100081B0100082D
:1000E0001B0100081B010008A32B0008DFF80CD03F
:1000F00000F08CFC00480047E1410008500E002051
:100100000648804706480047FEE7FEE7FEE7FEE7B1
:10011000FEE7FEE7FEE7FEE7FEE7FEE7452500080F
:10012000ED000008F0B480EA0102D40F4200B2EB07
:10013000410F02D20246084611464A0042D0C30D82
:10014000DDB2C1F3C752AD1A202D35DAC1F3160165
:1001500041F4000204B15242C5F1200602FA06F150
:100160002A411044B3EBD05F23D0C4B1012DA0EBE2
:10017000C35009DCF0BC4FF0004202EAC352DBB2CC
:1001800000F5000000F083BB400000F1807000EB40
:10019000C350A0F1807040EAD170490009E04908DD
:1001A00041EAC071A0EBC35000F50000400800EB2D
:1001B000C350F0BC00F062BB6142012202EB41017E
:1001C000001BF6E7F0BC704781F00041AAE780F021
:1001D0000040A7E780EA010210B502F000434000AA
:1001E00022D04A001FD0010E01EB1261C0F356006D
:1001F000C2F3560240F4000042F40002A0FB0220C9
:1002000000047F39140400D0401C50EA124001D48D
:100210004000491EC2B20C0604EBD010401C40083E
:10022000802A02D003E0002010BD20F00100002948
:1002300000DA0020184310BD30B480EA010202F059
:10024000004530F0004221F0004013D090B1C30DC2
:10025000D40DC2F31601C0F31600E41A41F40001F4
:1002600040F400027D34914201D3641C00E0490057
:10027000002C02DA30BC002070474FF4000000234D
:10028000914201D3891A034340084FEA4101F7D153
:1002900051B1914202D14FF0004105E002D24FF03E
:1002A000010101E06FF0010103EBC450284430BCB0
:1002B00000F0E4BA2DE9FE4F804681EA0300C00F4A
:1002C0000C46009021F0004123F00045B8EB0200FD
:1002D000A94105D24046214690461C460B4602469F
:1002E00023F00040104347D0270DC7F30A00C3F3A3
:1002F0000A510290401A019040286BDAC3F31300B0
:1003000040F4801B0098924620B10023D2EB030AF0
:1003100063EB0B0B01985946C0F14002504600F0C8
:100320003EFA06460D4650465946019A00F046FAF6
:1003300010EB08006141002487EA115284EAE77358
:100340001A4340D0009A62B3019A012A4FEA075239
:1003500015DC001B61EB02014FF0004202EA07527C
:10036000CDE90042001C41F5801132462B4600F0D9
:10037000CBFA03B0BDE8F08F40462146F9E7001BF9
:1003800061EB0201001C41F5801300185B4120184D
:10039000A2F5001747EB030140EAD570B6196D418D
:1003A00011E06D084FEA360645EAC0754FEA07527C
:1003B000001B61EB0201001C41F5801149084FEA66
:1003C00030000019514132462B4603B0BDE8F04FD2
:1003D00000F08BBA0098012240000023D0EB02020B
:1003E00063EBE073009821464FEAE074B8EB00003D
:1003F00061EB0401E9E783F000435BE781F0004132
:1004000058E72DE9FE4F81EA030404F0004421F08F
:10041000004100944FF0000B23F0004350EA010428
:100420005ED052EA03045BD0C3F30A54C1F30A5509
:100430002C44A4F2F3340194A0FB0254C1F3130141
:1004400041F48011C3F3130343F4801301FB02440E
:1004500000FB034E840A970A44EA815447EA835713
:10046000A4FB076802958D0A05FB07854FEA932CCC
:1004700004FB0C542705029D4FEA065847EA16373D
:10048000B5EB08056EEB070C870E920E47EA811755
:1004900042EA8312A7FB0201B6EB0B0164EB0004F6
:1004A0002B0D43EA0C335E1844EB1C50DA465146E0
:1004B000E7FB0201C5F313044FEA0B3343EA14537D
:1004C0004FEA0432019C43EA0603A4F10C040294AF
:1004D000009CCDE900B400F017FA03B0BDE8F08F3E
:1004E00000200146F9E72DE9F04D81EA030404F00C
:1004F000004B21F0004514464FF0000A23F0004164
:1005000050EA050220D054EA01021DD0C5F30A5773
:100510000246C5F31303C1F31300C1F30A5640F4B6
:10052000801543F48013A7EB0608101BD64608F28B
:10053000FD3873EB050002D308F1010801E09218C1
:100540005B41B8F1000F03DA00200146BDE8F08DF1
:1005500000204FF48011064684460EE0171B73EB13
:10056000050705D3121B63EB050306434CEA010C98
:1005700049084FEA300092185B4150EA0107EDD17B
:1005800052EA030012D082EA040083EA050108431C
:1005900005D0101BAB4106D20122002306E0002249
:1005A0004FF0004302E06FF0010253101AEB060017
:1005B0004CEB085110EB0A0041EB0B01BDE8F04D8C
:1005C00000F093B9C10F80EAE0700844CA0796238F
:1005D000002100F05CB90EB5C10F80EAE07008445C
:1005E000CA07002140F233438DE80E000A460B464D
:1005F00000F08AF903B000BD00F0004220F0004096
:10060000C10DC0F3160040F400007F2901DA00207C
:100610007047962903DCC1F19601C84001E0963984
:100620008840002AF4D04042704720F00040C10DBD
:10063000C0F3160040F400007F2901DA0020704763
:10064000962903DCC1F19601C8407047963988406D
:10065000704700F0004230F000400AD0C10D01F5B3
:100660006071C0F3160042EA0151C208400711430D
:10067000704700200146704730B5041E71F1000438
:1006800004DB4FF00044404264EB0101141E73F19F
:10069000000405DB1C464FF00043524263EB0403A9
:1006A0008B4208BF824230BD30B5041E71F1000498
:1006B00004DB4FF00044404264EB0101141E73F16F
:1006C000000405DB1C464FF00043524263EB040379
:1006D000994208BF904230BD01F0004330B421F090
:1006E000004150EA010206D00A0DA2F56072C1F382
:1006F0001301002A02DC30BC00207047440F44EA9A
:10070000C104C100E01830BC00EBC25000F0B6B824
:1007100030B50B46014600202022012409E021FAD1
:1007200002F59D4205D303FA02F5491B04FA02F5CE
:100730002844151EA2F10102F1DC30BD2DE9F05F65
:100740000546002092469B46884606468146402440
:100750001BE0284641464746224600F069F95346C9
:100760005A46C01A914110D311461846224600F04D
:1007700016F82D1A67EB01084F462246012000218A
:1007800000F00DF817EB00094E41201EA4F1010402
:10079000DFDC484631462A464346BDE8F09F202A22
:1007A00004DB203A00FA02F1002070479140C2F1C8
:1007B000200320FA03F3194390407047202A06DBF8
:1007C000CB17203A41FA02F043EAE07306E041FA1F
:1007D00002F3D040C2F1200291400843194670470D
:1007E0000FB4002300B589B00CA900910B996FF0EC
:1007F0000042CB601E4B06931E4B07930423CDE9AA
:1008000001321D4A089202466B46002000F0A6F90C
:1008100009B05DF814FB70B586B006464FF0FF30A6
:100820000091CDE90101002015460C4604903246A6
:10083000694604A8FFF7D4FF03460498211825B1A0
:1008400008B10A4600E022462A6000280DD0002B9D
:1008500002DD0098884208D0081B0094CDE901040D
:100860003246694604A8FFF7BBFF06B070BD000022
:10087000950D0008B30D0008510A00080029A8BF13
:100880007047401C490008BF20F00100704710B4B9
:10089000B0FA80FC00FA0CF050EA010404BF10BC6E
:1008A000704749B1CCF1200421FA04F411FA0CF19B
:1008B00018BF012121430843A3EB0C01CB1D4FEAD4
:1008C00000614FEA102042BF002010BC704700EBCF
:1008D000C35010440029A4BF10BC7047401C4900FD
:1008E00008BF20F0010010BC704710B5141E73F152
:1008F000000408DA401C41F1000192185B411A43E0
:1009000001D120F0010010BD2DE9F04D92469B462B
:1009100011B1B1FA81F202E0B0FA80F220329046D1
:10092000FFF73DFF04460F4640EA0A0041EA0B018B
:1009300053465A46084313D0114653EA010019D0D2
:10094000C8F14002504600F073F805460E46504686
:1009500059464246FFF723FF084305D0012004E033
:1009600020463946BDE8F08D0020054346EAE07692
:100970002C4337430A986305E40AA0EB08000022E1
:10098000FD0A44EA47540A3002D500200146E9E74F
:10099000010510196941DDE9084500196941BDE803
:1009A000F04DA2E7C1F30A52C1F3130140F2FF3345
:1009B00041F480119A4202DA00200146704740F269
:1009C00033439A42A2F2334202DC524200F030B882
:1009D000FFF7E5BE002801DBC0F10040002901DB84
:1009E000C1F10041814202D24FF0004004E04FF0DB
:1009F000005001D14FF0C0404FEA2062EFF3008178
:100A000062F31F6181F3008870470000064C074DB8
:100A100006E0E06840F0010394E8070098471034CE
:100A2000AC42F6D3FFF766FBF84C0008184D0008FF
:100A3000202A04DB203A21FA02F00021704721FA33
:100A400002F3D040C2F1200291400843194670479A
:100A5000C0B24FF4F05100F0D5B900002DE9FF4FBE
:100A6000087881B09946FF2805D0491C2D2804D06C
:100A70000024002308E000230BE00124F9E703EB46
:100A8000830300EB4303491C0878FF28F7D104B126
:100A90005B4200200090147801462D2C01D02B2CB5
:100AA00004D1521C2D2C12D000240094002516785D
:100AB000FF2E0ED00A24A0FB04C801FB04810027EE
:100AC00000FB0711521C16EB0C006941EFE70124F3
:100AD000EBE7994450EA01020ED00024AA4D2646C5
:100AE000DFF8A88200F0A2F982468B46B9F1000037
:100AF00009DAC9F100071BE001980021C0E90011E3
:100B000005B0BDE8F08F074612E0F80707D022468F
:100B10002B4630464146FFF774FC0646884622467F
:100B20002B4610461946FFF76CFC04460D467F1015
:100B3000002FEAD1B9F1000F3246434650465946DC
:100B400002DAFFF7D0FC01E0FFF75BFC009A0AB184
:100B500081F00041019AC2E90001D1E72DE9FF4F80
:100B60001F468DB0D7E901464FF0FF382E2045468D
:100B70004FF000090B90B9696D1C0E988847396ACF
:100B8000824688470028F6D1BAF1FF3F0AD024F404
:100B9000D064002E11DDBAF12B0F08D0BAF12D0F61
:100BA0000BD102E0404611B0ABE744F48064B96970
:100BB0006D1C0E9888478246761E6946600501D5F1
:100BC0002D2000E02B208DF8000001F1010B0DF12C
:100BD000200809E0B9696D1C0E98884782460F9875
:100BE00044F40074761E0560002E02DDBAF1300F69
:100BF000F0D00B998A453ED144F0800406E00F996D
:100C0000681CA9F1010944F400740860B9696D1CFD
:100C1000761E0E98884782463028F0D02BE00B993C
:100C20008A4505D1200603D444F08004761E18E0DE
:100C3000504602F05BFB08B30DF11301761E44F43D
:100C400000748B4508D2AAF130000BF8010B200686
:100C500007D5A9F1010003E0200602D409F1010043
:100C60008146A00502D50F99681C0860B9696D1C02
:100C70000E9888478246002ED1DC53E0002E51DDCD
:100C8000BAF1650F02D0BAF1450F4BD1A00549D595
:100C9000B9696D1C24F44074761E0E98884782460C
:100CA000002E0CDD2B2804D0BAF12D0F07D144F40F
:100CB0008074B9696D1C0E9888478246761EE005DF
:100CC00001D52D2100E02B2108F8011BCDF82C8047
:100CD00021E00DF12901761E44F4007488450CD200
:100CE000AAF1300010F0FF0088F8000002D10B9943
:100CF000884509D908F1010806E0E00501D5244836
:100D000001E042F20F708146B9696D1C0E98884768
:100D100082460F980560002E04DD504602F0E6FA88
:100D20000028D6D1F9690E988847FF208BF800007B
:100D300088F800000020069007904B466A4608A9F4
:100D400006A8FFF78BFEA00502D46FF001002AE78A
:100D500014F0240F0AD0E00714D1DDE90612386838
:100D6000031D3B600068C0E900120BE0DDE90601ED
:100D7000FFF7B2FC0146E00704D13868021D3A6073
:100D80000068016028460EE7000024400000F03FA4
:100D9000F1D8FFFF426842B1016811F8013B23B16D
:100DA000521EC0E90012184670470121C160881E1A
:100DB000704742685AB1C368016843B983688B427F
:100DC00005D0491E521CC0E90012002070474FF0A8
:100DD000FF30704770B521F0004303430CD0C1F3DE
:100DE0000A550024D5EB040564EB0403D617AD1AAD
:100DF000B34102DB0020014670BD201841EB0251D7
:100E000070BD00007F2801D9002208E0064A02EBED
:100E10005002C007127800D1120902F00F0201201F
:100E20009040084070470000B84C00080EB540F2F2
:100E3000334202920022CDE900221346FFF764FDFF
:100E400003B000BD70B58C1810F8015B15F00703F6
:100E500001D110F8013B2A1106D110F8012B03E053
:100E600010F8016B01F8016B5B1EF9D12B0705D45B
:100E70000023521E0DD401F8013BFAE710F8013BA4
:100E8000CB1A921C03E013F8015B01F8015B521EC0
:100E9000F9D5A142D8D3002070BDFEE7C1B2000A47
:100EA00040EA0120704700002DE9F84F0020009033
:100EB0004BF6BF7748F28008614E624D40F68F7A5C
:100EC000DFF8849148F60F7B604C2CE0088800F036
:100ED0000F0089F8000078B304EB8001D1F8002CF2
:100EE0000092BDF8002012040AD5D1F8002C02EAC5
:100EF0000A02C1F8002C5649401E51F820008047D4
:100F0000BDF8000000060ED599F8000004EB800142
:100F1000D1F8002C02EA0B02C1F8002C4D49401E0A
:100F200051F8200080474648443000684A4908800C
:100F30000004CBD4BDE8F88FFFE73068288028880C
:100F400000F030006880288800F440502880306825
:100F5000384080F4005080F0200040EA0800306003
:100F60000888C00620D4306800EA0B00306000F02A
:100F7000C9FC306838402988C90401D580F4805004
:100F80002988890401D580F400506988C90601D5F3
:100F900080F010006988890601D580F0200080B2B9
:100FA00040EA08003060C5E730680090BDF80000F6
:100FB000000520D5306800EA0A00306001F066F8CC
:100FC000306838402988C90401D580F480502988C8
:100FD000890401D580F400506988C90601D580F0E4
:100FE00010006988890601D580F0200080B240EAAF
:100FF000080030609EE7BDF80000000493D530681B
:1010000000EA0A00306000F005FE306838402988A8
:10101000C90401D580F480502988890401D580F461
:1010200000506988C90601D580F0100069888906DA
:1010300001D580F0200080B240EA0800306079E7F6
:10104000005C0040D2000020C000002000500040A2
:101050002001002004010020FA000020810008483F
:101060000844D0F8001C490409D5D0F8001C48F603
:101070008F7211404CF280021143C0F8001C70477F
:1010800000500040810008480844D0F8001C490680
:1010900009D5D0F8001C48F68F72114048F2C00202
:1010A0001143C0F8001C7047005000408100064802
:1010B0000844D0F8001C48F68F62114048F28002C4
:1010C0001143C0F8001C7047005000402DE9F04764
:1010D000DFF89880D8F8001001F1100528880E7A02
:1010E000234F4FF03009002801D1042E04D0AC88E2
:1010F000A04215D8042614E01E480178012903D027
:101100000726102038802BE01B4A002112681B4B59
:1011100092B2921C43F81210A7F8009001701FE0E1
:101120000226844200D90446A968A0B288478246B4
:10113000002000F037FA0146A2B2504601F05CFEF2
:10114000A1B2002000F000FF2888001B28806888DA
:1011500020446880A7F8009009494FF44050088067
:10116000D8F800000672BDE8F0870000C400002037
:10117000D4000020BC000020505C00400060004013
:10118000D20000202DE9F041214E3468103420882F
:10119000A168002915D0A0B1A588854200D90546CF
:1011A000A8B2884707462088401B208060882844D2
:1011B0006080002000F0D6F90146AAB2384600F05F
:1011C0004FFD2088134F302538B11349280208807D
:1011D0000021084600F0B8FE3D802088A1888842A2
:1011E00004D3316803200872BDE8F08118B131687A
:1011F00005200872F8E731680620087207480021C8
:101200000068074A80B2801C42F810103D80EBE76E
:10121000C4000020D4000020D2000020505C004018
:10122000006000402DE9F843634E306842780024A6
:10123000624D062A296801D08AB117E00278520669
:1012400069D18078012804D0022804D0032804D072
:1012500061E0CC695FE00C6A5DE04C6A5BE043886A
:1012600023B9C388022B01D1037923B1082A39D0CD
:101270000A2A3CD04FE00278530601D1838833B16B
:1012800002F07F02012A04D0022A0CD043E04C4C29
:1012900041E08A6940790021904710BB3068807A2C
:1012A000F8B1474C37E0417901F00F0001F07002CE
:1012B0000B06444907D501EB8001D1F8001CC1F3AE
:1012C0000111090106E001EB8001D1F8001CC1F316
:1012D000013109033C4B1B7883421CD90AB901B187
:1012E000374C18E00078400615D1384C13E00278EE
:1012F00002F07F02012A0ED1827A62B1428852B98D
:10130000027942B9C288012A05D18A69407900214F
:10131000904700B92E4C09274FF000083CB13068C7
:10132000A0F8128084610020A047002006E0296810
:101330003068096940788847032816D031680A8ADE
:10134000A2F57F43FF3B0DD0022811D082B108786F
:1013500000062AD5C8880090009882420CD90098CF
:1013600008821AE00F72BDE8F88330680772FAE766
:101370004FF008000872F6E70FD22868154B90F876
:101380002C00824202D283F8008006E0B2FBF0F427
:1013900000FB142008B901201870286890F82C0070
:1013A0008882BDE8F843FFF791BE032008720A491E
:1013B00000030880D7E70000C4000020C800002018
:1013C0008122000800500040A801002011220008DE
:1013D00059220008BC000020D20000207047000005
:1013E00010B51D48B0F80214B0F80024914231D075
:1013F000B0F80214B0F80024914206D2B0F80014FC
:10140000B0F80224891A8CB204E0B0F80214C1F5D5
:1014100080618CB2402C00D94024B0F80214B0F89E
:1014200002242244A0F80224B0F80224B2F5806F0E
:1014300002D30022A0F8022408442246C02101F071
:10144000DBFC2146012000F07FFDBDE810400120BB
:1014500000F0A0BD10BD00005802002010B50649E4
:10146000032001F087FCC1B2034801F095FCBDE800
:101470001040032000F044BDEC0700200149086043
:10148000704700001404014010B503A001F0DAFD1C
:1014900008490320086010BD75736220656E74658D
:1014A00072206C6F7720706F776572206D6F646546
:1014B0000D0A0000AC0100202DE9F0410022CC789B
:1014C00004F00F03E40601D58C7823430C784FF029
:1014D0000F0714F0FF0F4FF0010C1CD005680CFA39
:1014E00002F40E882640A64211D1960007FA06F8AB
:1014F00025EA080503FA06F848EA0505CE78282EFD
:1015000002D0482E02D002E0446100E00461521C87
:10151000082AE4D305600A88FF2A1ED945680022FC
:1015200002F108060CFA06F40E882640A64210D1F5
:10153000960007FA06F825EA080503FA06F848EACD
:101540000505CE78282E00D14461CE78482E00D1F2
:101550000461521C082AE3D34560BDE8F0810161B3
:10156000704700000549096889B201EBC0000449D1
:10157000001D31F8100080B270470000505C004040
:10158000006000400549096889B201EBC0000449C8
:10159000801D31F81000C0F309007047505C004016
:1015A000006000400449096889B201EBC0000349AA
:1015B00031F8100080B27047505C0040006000407D
:1015C00010B50B480168001D0468001D0068084440
:1015D00000280BD00822074900F0C4F9054920462D
:1015E0000422BDE81040103100F0BCB910BD00006D
:1015F000E8F7FF1FDA00002070B505460C4600F042
:1016000015F9204600F0E8F800F02EF9A8B12846B8
:1016100000F0E2F800F028F900F008F9641CE0B2EC
:1016200000F0DAF800F020F958B1002000F0A6F838
:10163000044600F00DF9204670BD00F009F90020C5
:1016400070BD00F005F9002070BD2DE9F04107469E
:101650000D4614461E4600F0E9F8304600F0BCF88E
:1016600000F002F970B1384600F0B6F800F0FCF86E
:1016700000F0DCF8761CF0B200F0AEF800F0F4F800
:1016800028B111E000F0E4F80020BDE8F08100F09E
:10169000DFF80020F9E7012D0CD0012000F06EF8F2
:1016A00020706D1EEDB2641C002DF4D100F0D0F856
:1016B0000120EAE7002000F061F82070F1E770B542
:1016C00006460D46144600F0B1F8204600F084F8B6
:1016D00000F0CAF870B1304600F07EF800F0C4F8AF
:1016E000284600F079F800F0BFF838B100F0B0F803
:1016F000012070BD00F0ACF8002070BD00F0A8F82B
:10170000002070BD70B5074C0025656002F046FDF5
:101710000126266002F042FD256002F03FFD666072
:1017200070BD00008801214208B50121042000F0AD
:10173000EFFA0C20ADF8000014208DF80300032010
:101740008DF8020069460348FFF7B6FE00F080F806
:1017500008BD00000008014070B5074C0125656018
:1017600002F01CFD256002F019FD00202060BDE89C
:10177000704002F013BD0000880121422DE9F047BE
:10178000824600240025DFF84880124E0127A1463A
:101790006006040EC6F8887102F000FDD8F800005B
:1017A000000701D5641CE4B2C6F8889102F0F6FC8B
:1017B0006D1CEDB2082DEBD3BAF1000F04D0FFF78A
:1017C000A1FF2046BDE8F087FFF7C6FFF9E700005C
:1017D00008080140000021422DE9F041054600249F
:1017E000114EA0460127280602D5C6F88C7101E0EB
:1017F000C6F88C8102F0D2FCC6F8887102F0CEFCEB
:10180000C6F88881022002F0B5FB072C01D1C6F88A
:101810008C716806050E02F0C1FC641CE4B2082C51
:10182000E1D3BDE8F08100000000214270B5074C13
:1018300001206060206002F0B1FC0025656002F0CC
:10184000ADFC2560BDE8704002F0A8BC88012142D3
:1018500070B5044C002060600125256002F09EFCFC
:10186000656070BD8801214270B500240A4D0126D3
:10187000C5F88C6102F092FCC5F8886102F08EFC1C
:1018800006480068000700D401240020C5F888013C
:1018900002F084FC204670BD00002142080801408F
:1018A00010B5FFF741FF80216B2000F033F9642071
:1018B00002F046FB00216B2000F02CF900216C2087
:1018C00000F028F9012000F0F2F8012000F0EAF819
:1018D0004FF47A7000F008F90021382000F01AF96E
:1018E00000216A2000F016F90021232000F012F9EF
:1018F000752000F0D1F8682801D0002010BD01202B
:1019000010BD000010B5144C2068017A02290AD0DD
:10191000042908D006290BD0082021680872BDE8E8
:10192000104000F0B1B9FFF7D1FB2068007AF4E76E
:101930004178052909D10178490606D1C07800F01F
:1019400071FA06480068006A8047054800688068A8
:1019500080470820E1E70000C4000020CC00002000
:10196000C8000020F0B500230A25302637270024C0
:1019700012E0B5EB107F04D906EB107C01F813C020
:1019800003E007EB107C01F813C0000101EB430CEE
:101990008CF801405B1CDBB29342EAD3F0BD00003F
:1019A00038B50121102000F0B3F94FF40054ADF820
:1019B000004010208DF8030003208DF80200054D33
:1019C00069462846FFF778FD21462846FFF7C7FD00
:1019D00038BD00000010014010B5064C06A001F013
:1019E00031FBA17A0A4811B10521016010BD012126
:1019F000016010BD3C0200206C65617665206C6F53
:101A00007720706F776572206D6F64650D0A000036
:101A1000AC0100207CB504460D4616466A460621F8
:101A20003B2000F03CF8012814D19DF801109DF8EE
:101A3000002041EA022323809DF803109DF8022034
:101A400041EA022129809DF805109DF8042041EA11
:101A5000022131807CBD7CB504460D4616466A469F
:101A60000621432000F01BF8012814D19DF8011035
:101A70009DF8002041EA022323809DF803109DF881
:101A8000022041EA022129809DF805109DF80420DA
:101A900041EA022131807CBDD021FFF7ADBDD023CA
:101AA000FFF7D3BDC006010E1C2000F033B8C006FE
:101AB000010E1B2000F02EB8BC2801D3012110E03C
:101AC000622801D302210CE02A2801D3032108E077
:101AD000142801D3042104E00A2801D3052100E0E1
:101AE00006211A2000F016B810B504464FF47A709B
:101AF000844200D90446042C00D20424B0FBF4F044
:101B0000401EC1B2192000F005F86008BDE8104081
:101B1000FFF7D2BFD022FFF7D2BDFEE77047704774
:101B20000249084302490860704700000000FA05B6
:101B30000CED00E070B50220314D29684C780A7830
:101B4000530606D002F07F0101292ED0022931D0A0
:101B50003AE0092C06D0052C07D0032C12D0012C1A
:101B600018D031E000F0EAFB2EE0C8787F2805D8D5
:101B7000887818B9888808B9887A08B108203CE0C4
:101B8000002021E0CA78012A1ED18988E1B900F03D
:101B9000F1FB19E0CA78012A16D18A88A2B9497ADC
:101BA000890611D500F0ACFA0EE00B2C0CD100F038
:101BB0003DFC09E0012C02D0032C03D004E000F02E
:101BC0009FFA01E000F0E8FB30B10E49E0B209688D
:101BD00049698847032802D018B108200DE0092080
:101BE0000BE00620084900220968084B89B2891CCD
:101BF00043F81120064A302111802968087270BD0F
:101C0000C4000020C8000020505C0040006000407C
:101C1000D400002010B5104C2068007A02280ED0A5
:101C200004280CD003280CD005280AD007280DD092
:101C3000082021680872BDE8104000F025B808208F
:101C4000F7E7FFF79FFA2068007AF2E70348006899
:101C5000C06880470820ECE7C4000020C8000020CE
:101C6000521C5208064B03EB4101002A06D031F802
:101C7000043B20F8023B521E002AF8D170470000B6
:101C8000006000407047000010B50B4890F82C1021
:101C9000002000F0FBF809480068007A082805D108
:101CA000074A41021180074A10211180092801D0FA
:101CB000002010BD012010BD58010020C4000020EC
:101CC000D2000020D400002010B5012000F06EFFEB
:101CD000012106480160064A00210160031D1960C8
:101CE0004FF4E05111800160002010BD405C0040C5
:101CF000D0000020054A002903D0D1690143D161F9
:101D00007047D1698143D1617047000000100240E3
:101D1000054A002903D09169014391617047916997
:101D20008143916170470000001002402DE9F041AD
:101D3000234C072800D020702078214D062605224C
:101D400004272049062838D2DFE800F0030C1217D8
:101D50001F28686810B12270BDE8F08100F034F8E7
:101D60002670F9E700F030F8277001206860F3E78B
:101D70000220607003202070EEE76078401E6070E3
:101D800060780028E8D12770E6E7086880B240F064
:101D90001000086022700A206070DDE76078401E45
:101DA000607060780028D7D1086880B220F01000F9
:101DB0000860267000206860CEE72670CCE700003F
:101DC000B4010020405C004010B5064C206880B291
:101DD00020F004002060FFF7FFFD4FF43F4020603B
:101DE00010BD0000405C004007480068052809D18C
:101DF00006490868401C0860062803D100200860D6
:101E0000FFF7EEBA70470000AC010020F40000209C
:101E100070470000024920F007000860704700008A
:101E2000505C0040F0B50E490E7800210D4F48F689
:101E30008F7C48F280050BE0CBB207EB8302D2F82F
:101E4000004C04EA0C041C432C43C2F8004C491C0F
:101E5000B142F1D3044940F080000860F0BD0000B9
:101E6000A8010020005000404C5C0040054A21F0D1
:101E70000101126892B202EBC000034A001D42F851
:101E800010107047505C0040006000400E4A12681D
:101E900092B202EBC0000D4A801D02EB40023E29C7
:101EA0000AD94809C90601D1401E80B24FF4004149
:101EB00041EA8020106070474808C90701D0401CE3
:101EC00080B2800210607047505C004000600040AB
:101ED00082000A480244D2F8000C4BF68F73184077
:101EE000CB0401D580F48050890401D580F40050E2
:101EF00048F280010843C2F8000C704700500040CF
:101F0000810008480844D0F8001C4BF68F7211403D
:101F100081F4805181F4005148F280021143C0F8ED
:101F2000001C704700500040054A21F00101126872
:101F300092B202EBC000034A42F810107047000052
:101F4000505C004000600040044A126892B202EB0C
:101F5000C000034A801C42F810107047505C0040DB
:101F60000060004082000A480244D2F8000C48F6A3
:101F7000BF731840CB0601D580F01000890601D54B
:101F800080F0200048F280010843C2F8000C70473E
:101F900000500040810008480844D0F8001C48F672
:101FA000BF72114081F0100181F0200148F28002DF
:101FB0001143C0F8001C70470050004082000548E3
:101FC0001044D0F8002C48F68F131A400A43C0F88A
:101FD000002C704700500040AFF300800CB5002289
:101FE000019200922748016841F4803101604FF46A
:101FF000A063016801F4003100910199491C01912D
:10200000009911B901999942F3D10168890302D568
:102010000121009100E000920099012930D11A4974
:102020000A6842F010020A600A6822F003020A609D
:102030000A6842F002020A604168416041684160FA
:10204000416841F480614160416821F47C11416044
:10205000416841F4E8114160016841F0807101601C
:1020600001688901FCD5416821F0030141604168A4
:1020700041F0020141604168C1F381010229FAD1B6
:102080000CBD0000001002400020024038B5194885
:10209000006880B2001D41001748095A89B200EB60
:1020A00041040094154D2868017A092913D021783C
:1020B00001706178241D41702088FEF7EFFE2968C9
:1020C0004880A088A41DFEF7E9FE29688880A41C2A
:1020D00000942088C880286801210172C08828B136
:1020E000FFF7A0F8BDE83840FFF7CEBDFFF722FDAF
:1020F000F8E70000505C004000600040C400002091
:102100002DE9F0413D480068017801F07F01002988
:1021100004D0022908D00220BDE8F081417A01F004
:10212000DF0141720020F7E7418809B9017909B15F
:102130000220F1E7324B417921F08004314E0A064A
:1021400007D506EB8402D2F8002CC2F3011212016B
:1021500006E006EB8402D2F8002CC2F3013212032F
:102160001D78A5420DD962B1807A50B1080612D50A
:1021700006EB8400D0F8000CC0F30110012802D057
:1021800024E00220C8E7E0B2FEF77CFFE0B2302195
:10219000FFF7E8FE1AE006EB8405D5F8000CC0F363
:1021A0000130012812D14BF68F7848F280079CB19C
:1021B000E0B2FEF753FFD5F8000C00EA080080F407
:1021C000805080F400503843C5F8000C0E48006879
:1021D0004069804700209FE70C4890F82C100020B1
:1021E000FFF754FED6F8000C00EA080080F4805097
:1021F00080F400503843C6F8000CE7E7C400002024
:10220000A801002000500040CC0000205801002010
:1022100010B5074C002806D00648006800688047C3
:1022200020680A3010BD216801200882002010BDFE
:10223000C4000020CC000020064A13685A8A0028F7
:1022400002D00868104470478888801A18820020DD
:1022500070470000C400002010B5074C002806D0CD
:10226000064800688068804720680C3010BD2168EF
:1022700001200882002010BDC4000020CC000020F6
:1022800010B52A49002809680DD02948002202808B
:102290000A7853060BD002F07F02012A1FD0022ACF
:1022A0001FD0002010BD02200882002010BD497AF6
:1022B0008A0604D5027842F00202027003E0027836
:1022C00002F0FD020270490604D5017841F00101D7
:1022D000017025E0017801F0FE01017020E0144852
:1022E00010BD4A7902F00F011306124A0CD502EB19
:1022F0008101D1F8001CC1F30111012910D101782D
:1023000041F0010101700BE002EB8101D1F8001CEA
:10231000C1F30131012903D1017841F001010170BC
:102320000548006800698047014810BDC4000020CE
:10233000BE00002000500040CC00002010B50A482C
:102340000A4A00685278C178914203D882780AB963
:1023500082880AB1022010BD817205480068406879
:102360008047002010BD0000C4000020A80100200C
:10237000CC00002010B506480068417A41F02001E9
:10238000417204480068C0698047002010BD000009
:10239000C4000020CC00002070B5204802685179AC
:1023A00021F080041E4B21F080000D0603EB80001D
:1023B00005D5D0F8003CC3F301131B0104E0D0F8AD
:1023C000003CC3F301331B03164D2D78A54213D9EE
:1023D00054888CB983B1927A72B1090648F28002AE
:1023E0000CD5D0F8001C48F6BF73194081F01001DD
:1023F0001143C0F8001C0BE0022070BDD0F8001C97
:102400004BF68F73194081F480511143C0F8001CC2
:102410000548006880698047002070BDC400002026
:1024200000500040A8010020CC00002010B50F4C47
:102430000F4A20681268C1789269407990472168F4
:102440008A7A8AB118B9087908B9887808B102205F
:1024500010BD08480068C068804720684179C17293
:10246000C1780173002010BD022010BDC4000020FF
:10247000C8000020CC00002078B40020002100918A
:102480001A4B19688DB21A491A4A01EB8004D4F824
:10249000004CA4B242F82040401C0828F5D345F473
:1024A0008060186040F00100186020F001051D6098
:1024B0000E48001D04686405FCD54FF6FF34046027
:1024C000002052F8204001EB8006A4B2C6F8004C70
:1024D000401C0828F5D345F008001860186880B241
:1024E00040F00400186078BCFEF7CEBF405C0040AE
:1024F000005000402C0800204FF0E021042804D0B8
:10250000086920F0040008617047086940F0040081
:10251000086170477047000010B504466FF0040072
:10252000FFF7EAFF0649E008087000EB4002C2EB43
:10253000C0104FF6FF7202EAC000488010BD0000D4
:10254000B800002010B50F48016841F0010101609A
:1025500041680D4A1140416001680C4A1140016018
:10256000016821F480210160416821F4FE0141608D
:102570004FF41F018160FFF72FFD05494FF0006008
:10258000086010BD001002400000FFF8FFFFF6FEDB
:1025900008ED00E070B50821CD06284600F0D7F818
:1025A000124C30B10821284600F0C2F82088401CA7
:1025B00020801021284600F0CAF830B110212846AA
:1025C00000F0B6F86088401C60800121284600F0C9
:1025D000BEF8002809D00121284600F0A9F82846B5
:1025E000BDE87040002100F0A6B870BD00000020DA
:1025F00070B588B004460D4601210220FFF77AFB32
:1026000001210420FFF784FB01210820FFF780FB54
:1026100001210846FFF77CFBC022ADF81C201822E0
:102620008DF81F2003268DF81E6007A92448FEF7A9
:1026300043FFADF81C6007A92248FEF73DFFADF847
:102640001440ADF810500020ADF81600ADF812009F
:102650001D4C04A9204600F0AFF97021ADF8001020
:102660000121ADF802100221ADF80810694620469C
:1026700000F07AF86946204600F0C0F86946204626
:1026800000F00AF96946204600F04EF9082120467C
:1026900000F0AEF80821204600F0F4F808212046AA
:1026A00000F03CF90821204600F072F90121204693
:1026B00000F032F80121204600F03DF808B070BD6E
:1026C00000080140000C01400004004010B5104C0F
:1026D0000421204600F03BF8012807D10D4801886D
:1026E000491C01800421204600F022F801212046E7
:1026F00000F02DF800280AD000214FF0804000F0B3
:102700001AF82046BDE81040012100F011B810BDB4
:102710000008004000000020002904D0018841F09A
:10272000800101807047018821F08001018070479D
:10273000C94301827047002904D0018841F001019A
:1027400001807047018821F0010101807047024635
:102750000020138A0B4092890A40002B02D0002AE5
:1027600000D001207047000030B5028C22F0010239
:102770000284028C8388048B24F0700424F0030507
:102780000C882C4322F002020D8915434A882A4303
:10279000124DA8420BD0124DA84208D0114DA842AC
:1027A00005D0114DA84202D0104DA8420FD122F001
:1027B00008054A892A4322F004058A882A4323F41B
:1027C000807323F400738D891D43CB892B43838051
:1027D0000483C9888186028430BD0000002C01403A
:1027E00000340140004001400044014000480140E5
:1027F000028B22F008020A430283704770B5028CF4
:1028000022F010020284028C8388048B24F4E044BA
:1028100024F440760D884FF6FF7404EA052535430D
:1028200022F020020E8904EA061616434A8804EABA
:1028300002123243114EB04202D0114EB04217D1B3
:1028400022F080024E8904EA0616164326F040065E
:102850008A8804EA0212324323F4806323F400637B
:102860008E8904EA86061E43CB8904EA8303334338
:1028700083800583C9880187028470BD002C0140D4
:1028800000340140028B22F400624FF6FF7303EA2A
:10289000012111430183704770B5028C22F48072CC
:1028A0000284028C8388848B24F0700424F0030457
:1028B0000D88254322F400720E894FF6FF7404EA56
:1028C000062616434A8804EA02223243114EB042D9
:1028D00002D0114EB04217D122F400664A8904EAB0
:1028E0000222324322F480668A8804EA02223243BA
:1028F00023F4805323F400538E8904EA06161E4302
:10290000CB8904EA0313334383808583C988818795
:10291000028470BD002C014000340140828B22F003
:1029200008020A438283704770B5028C22F48052F9
:102930000284058C8288838B23F4E04323F4407661
:102940000C884FF6FF7303EA0424344325F4005542
:102950000E8903EA06362E434D8803EA05353543D2
:10296000094EB04202D0094EB04205D122F4804651
:102970008A8903EA8212324382808483C988A0F85C
:102980004010058470BD0000002C0140003401405F
:10299000828B22F400624FF6FF7303EA0121114398
:1029A00081837047818670470187704781877047B0
:1029B000A0F840107047000030B502881B4C1C4D39
:1029C000A0420DD0A8420BD0B0F1804F08D0194BD7
:1029D000984205D0184B984202D0184B984203D128
:1029E00022F070034A881A43154B984206D0154BC3
:1029F000984203D022F44073CA881A4302808A881E
:102A000082850A880285A0420AD0A84208D00E4AD0
:102A1000904205D00D4A904202D00D4A904201D119
:102A2000097A01860121818230BD0000002C01401D
:102A3000003401400004004000080040000C004049
:102A400000100040001400400040014000440140DC
:102A50000048014010B50D4C40F22551204600F0D1
:102A600078F860B1204600F094F8C1B2204600F03A
:102A700094F84021204600F065F80128F9D120465D
:102A8000BDE81040402100F003B8000000380140CC
:102A90008A05C9430180704710B50D490020A1F88F
:102AA0000204A1F800040B4908800B4C0BA021790B
:102AB00000F0C8FA61790FA000F0C4FAA17914A05F
:102AC00000F0C0FA19A0216800F0BCFA012010BD86
:102AD00058020020D6000020400100206C696E657D
:102AE000636F64696E672E666F726D61743A2564F8
:102AF0000D0A00006C696E65636F64696E672E7005
:102B00006172697479747970653A25640D0A000000
:102B10006C696E65636F64696E672E64617461745D
:102B20007970653A25640D0A000000006C696E65D5
:102B3000636F64696E672E626974726174653A25A9
:102B4000640D0A000246002012880A4200D00120CB
:102B5000704770B5002440F66A12C1F3421301F0C9
:102B60001F05012606FA05F2012B0CD0022B0DD011
:102B7000838A1340090A8E40008830400BB100B1AF
:102B80000124204670BD83891340F3E7038A134074
:102B9000F0E78088C0F308007047C1F30801818026
:102BA00070474FF48020FEF769BC0000002802D077
:102BB00002A000F047BA07A000F044BA7573622083
:102BC00070756C6C20757020656E61626C650D0AA5
:102BD000000000007573622070756C6C20757020A9
:102BE00064697361626C650D0A0000002DE9F041B3
:102BF00088B00024504D2868504E70807088DFF8EF
:102C00004081B8F800100840800507D54FF6FF5006
:102C100028603078401C3070FFF7E6F87088B8F80C
:102C200000100840000401D5FEF73EF97088B8F89E
:102C300000104FF6FF370840400503D52F6041488C
:102C4000406880477188B8F800000140890402D5C7
:102C50004DF6FF71296071880140C80405D54EF614
:102C6000FF7028600020FFF761F87088B8F8001046
:102C7000084000050BD53448007810B1FFF7FCFB85
:102C800002E00220FFF752F84FF2FF7028607088D0
:102C9000B8F800100840C0054AD54FF6FF6028601C
:102CA0002548001D00684FF00003000439D5706806
:102CB000401C70607068032834D91F48001F0168E9
:102CC00009072FD4016889B2B16020496A4601EB37
:102CD000840CDCF800CC1FFA8CFC42F824C0641C85
:102CE000082CF4D3B46844F00104B460B468A4B20E
:102CF0000460B46824F00104B460B468A4B2046051
:102D000028684005FCD52F60002052F8204001EBD8
:102D10008005A4B2C5F8004C401C0828F5D37360A8
:102D200000E0736008B00720BDE8F041FEF7FEBF89
:102D300008B0BDE8F0810000445C0040F8000020CD
:102D4000D000002058010020B001002000500040B9
:102D5000FFF74CBF05490020086005494FF43F408C
:102D600008800249091F086000207047445C004049
:102D7000D000002070B50E4600F07F052846FEF713
:102D800001FC04462846FEF7EDFB0146224630468C
:102D9000FEF766FF204670BDF0B500230026134DF8
:102DA0001DE0C45C2A88170417D4570407D50A2CE1
:102DB00001D02E8011E042F400422A800DE00D2C5B
:102DC00010D0DFF82CC0C2F30D070CF80740521CDE
:102DD00092B22A80C72A00D92E805B1CDBB28B42BC
:102DE000DFD3F0BD42F480422A80F6E7D60000200F
:102DF00024070020FEE7000010B5521C5208084BC3
:102E000003EB4101002A09D003784478801C43EA8F
:102E1000042321F8043B521E002AF5D110BD000006
:102E20000060004010B500210F4A2128126802D02E
:102E3000202807D00FE0107800F07F0021280AD169
:102E40000A4908E0107800F07F00212800D10849E5
:102E5000084B2020187029B19161002050828847CA
:102E6000002010BD022010BDC4000020912E0008DB
:102E7000E92F00083C0100200149FFF7DDB90000FF
:102E8000500100200149FFF7D7B900004801002098
:102E9000002801D0034870470349082009680882C8
:102EA0000020704740010020C40000200549096847
:102EB000C978042901D900207047034A02EBC101F7
:102EC000FFF7BAB9C400002088010020002901D012
:102ED00002207047012801D9022070470020704766
:102EE00008490968097801F07F01212903D10228E6
:102EF00003D0222803D00220704700207047002012
:102F000070470000C400002010B53348002100685D
:102F10008172324AD2794272C1720020FEF77AFF82
:102F20004FF400710020FFF749F810210020FFF74F
:102F300019F840210020FEF799FF80210020FEF7BC
:102F4000F3FF0020FEF7B2F8254890F82C1000207F
:102F5000FEF79CFF0020FEF7D3FF00210120FFF7C2
:102F60002DF8C0210120FEF7DFFF20210120FEF710
:102F7000F9FF00210120FEF7ABFF4FF4C0610220F2
:102F8000FFF71CF84FF480710220FEF7CDFF0021FF
:102F90000220FEF79DFF20210220FEF7E3FF002123
:102FA0000320FFF70BF84FF488710320FEF75EFF54
:102FB00040210320FEF76AFF4FF440510320FEF743
:102FC00087FF00210320FEF7CDFF0020FEF72AFF38
:102FD00004490120086010BDC4000020764B0008A1
:102FE00058010020AC010020002801D003487047A0
:102FF000034908200968088200207047400100202A
:10300000C400002010B5044C2078202803D1FFF71D
:1030100043FD0020207010BD3C01002070470000DF
:1030200010B5FEF7CDFA0548002400688472FEF75B
:103030004BFEFFF78FFE0248046010BDC400002065
:10304000AC0100200FB4054B10B503A9044A029847
:1030500000F054F910BC5DF814FB0000F93F0008C3
:10306000BC010020490050EAC12018BF04204A0DCD
:1030700018BF40F0010040F2FF72B2EB515F08BF91
:1030800040F00200012808BF052070472DE9F041FB
:103090004F1E00EBC7010446D1E9000115461E464C
:1030A00037F006020DD02A463346FDF7AAF97F1EF7
:1030B00004EBC703D3E90023FDF7FCF837F0060261
:1030C000F1D1022F25D0042F13D0062F18BFBDE851
:1030D000F0812A463346FDF794F9D4E90A23FDF737
:1030E000E9F82A463346FDF78CF9D4E90823FDF7C1
:1030F000E1F82A463346FDF784F9D4E90623FDF7C3
:10310000D9F82A463346FDF77CF9D4E90423FDF7C4
:10311000D1F82A463346FDF774F9D4E90223FDF7C6
:10312000C9F82A463346FDF76CF9D4E90023BDE817
:10313000F041FDF7BFB80122FDF74CBEFDF7BAB86C
:10314000024A00201107FDF745BE000001FDFFFF08
:103150000148006870470000C801002002E008C86C
:10316000121F08C1002AFAD170477047002001E001
:1031700001C1121F002AFBD17047000001490860FD
:1031800070470000C80100202DE9FF5FDDE9022043
:10319000010DDDF838B0024318D044F61050A1F20A
:1031A000FF3141430D140F98012820D0A5EB0B00EF
:1031B000401C5FEA000A4FF00004474EDFF81C9104
:1031C000A046504616D5CAF1000728E00F98012402
:1031D00043A2012808D0002100980F9BC0E90021DC
:1031E000C0E90243BDE8FF9F6FEA0B01F4E7CBF1B2
:1031F0000000DEE7074612E0F80707D02246334614
:1032000040464946FDF7FDF880468946224633464A
:1032100010461946FDF7F5F804460E467F10002FBC
:10322000EAD1DDE90201BAF1000F42464B4602DA6B
:10323000FDF7E7F801E0FDF756F904460E460022D7
:10324000284BFDF731FA03D84FF0FF30014607E075
:103250000022254B20463146FDF72CF8FDF7A2FB56
:10326000102409E0002C0ADB0A220023FDF766FA8D
:10327000019B30321A55641E50EA0102F2D1641CDF
:10328000019AC4F1110314440F9A012A03D00122B8
:1032900008430DD10AE0084304D000204FF0110B81
:1032A0000F9080E7A3EB0B056D1E0DE05B4504DD81
:1032B0004FF0000205F1010504E003DA4FF00002CF
:1032C000A5F10105002AECD000980F99C0E9023160
:1032D000C0E9004586E70000000024400000F03F00
:1032E000300000000000F0430000E03F30380A28C2
:1032F00001D2012070470020704700002DE9FF4FE8
:1033000095B09B468946064600250FE2252877D1D1
:1033100000242746F84A0121059400E0044316F8EA
:10332000013F203B01FA03F01042F7D130782A2800
:1033300011D06FF02F033078A0F13002092A16D88F
:10334000059A44F0020402EB820203EB42021044AD
:10335000761C0590EFE759F8042B0592002A03DA52
:10336000504244F40054059044F00204761C307836
:103370002E2816D116F8010F44F004042A280DD087
:103380006FF02F023078A0F13003092B09D807EB3A
:10339000870302EB4303C718761CF3E759F8047B55
:1033A000761C30786C280FD006DC4C2817D06828A3
:1033B0000DD06A2814D104E0742810D07A280FD1D7
:1033C0000DE044F400140AE044F4801401E044F4F5
:1033D00040147278824202D104F58014761C761C67
:1033E000307866280BD013DC582877D009DC002809
:1033F00075D04528F6D04628F4D047281AD19DE14B
:1034000018E0632835D0642879D0652812D195E179
:10341000702873D008DC6728F1D069286FD06E2837
:103420000DD06F2806D1B5E073282CD0752875D043
:10343000782874D05A46179990476D1C75E1C4F3EB
:103440000250022809D003280DD0D9F80010042812
:103450000DD00D6009F1040967E1D9F80010EA17F1
:10346000C1E90052F6E7D9F800100D80F2E70D70BF
:10347000F0E719F8041B8DF8001000208DF801000A
:10348000EA46012003E059F804AB4FF0FF30610732
:103490004FF0000102D40DE008F101018846B94265
:1034A0000FDA8045F8DB1AF808100029F4D108E09B
:1034B00008F1010188468142FADB1AF80810002958
:1034C000F6D105985B46A0EB080721463846179AC7
:1034D00000F094FA284400EB080507E04DE029E1EC
:1034E0000DE01AF8010B5A4617999047B8F10108F8
:1034F000F7D25B4621463846179A13E142E00A228A
:103500000092C4F302524FF0000A022A08D059F880
:1035100004CB032A4FEAEC710AD00DE029E02AE03F
:1035200009F1070121F00702F2E802C1914609E022
:103530000FFA8CFC4FEAEC71042A03D14FFA8CFC91
:103540004FEAEC71002907DA0A460021DCF1000C91
:1035500061EB02012D2202E0220504D52B228DF819
:103560000420012203E0E20701D02022F7E7904681
:1035700059E00A2102E010220DE010214FF0000A6C
:1035800000910BE010224FF0000A44F004040827D9
:10359000009203E008224FF0000A0092C4F30252A6
:1035A000022A05D059F804CB0021032A08D009E0EB
:1035B00009F1070121F00702F2E802C1914605E096
:1035C0001FFA8CFC042A01D10CF0FF0C4FF000080C
:1035D000220728D5702806D0009B83F0100353EAF9
:1035E0000A0305D00EE040228DF80420012208E0F5
:1035F0005CEA010206D030228DF804208DF8050027
:1036000002229046009B83F0080353EA0A030AD182
:103610005CEA010201D1620705D530228DF8042051
:103620004FF001087F1E582804D034A003900EA844
:1036300002900DE036A0F9E753466046009AFDF788
:103640007DF884460398825C0298401E02900270C6
:103650005CEA0100F0D1029806A9081A00F1200ADC
:10366000600702D524F4803400E00127574502DDCD
:10367000A7EB0A0000E0002000EB0A01009005988B
:103680004144401A0590E00306D45B462146179A50
:10369000059800F0B3F90544002706E001A85A4652
:1036A000C05D179990476D1C7F1C4745F6DBE00312
:1036B0000CD55B462146179A059800F09FF9054402
:1036C00004E030205A46179990476D1C0099481E17
:1036D00000900029F5DC08E0029802995A4600782B
:1036E000491C0291179990476D1CBAF10001AAF18B
:1036F000010AF1DC65E100000928010030313233B4
:10370000343536373839616263646566000000001D
:103710003031323334353637383941424344454607
:103720000000000000F058F90544761C30780028AD
:103730007FF4ECAD19B02846BDE8F08F620700D4E5
:10374000062709F1070222F0070CFCE80223E146F4
:1037500003F000485FEA080C02D00FF2702C0DE075
:103760005FEA045C02D50FF2682C07E05FEAC47CD4
:1037700002D00FF2602C01E0AFF2700C4FF0FF3876
:1037800023F00043CDF850C065280CD006DC452856
:1037900009D046281DD047283DD13DE0662818D0E5
:1037A00067287ED138E00021112F01DB112000E0D5
:1037B000781CCDE9000106A90EA8FFF7E5FCDDE9BC
:1037C0000F010E9A03910021009207F1010A049162
:1037D0004DE04FF000400097CDE9011006A90EA87A
:1037E000FFF7D2FCDDE90F0203920E9B1199002234
:1037F000DDF80CA00093049211B9791C00EB010ACA
:10380000B7EB0A0004D4C0F1FF3007F1010A0490BD
:10381000AAEB0700019044E0012F00DA0127002104
:10382000112F01DD112000E03846CDE9000106A985
:103830000EA8FFF7A9FCDDE90F010E9A0391002104
:1038400004910092BA4621070CD40399514500DA3D
:103850008A46BAF1010F05DD009AAAF10101515C17
:10386000302908D0B84202DA10F1040F06DA01213B
:10387000CDE9011015E0AAF10101E9E7002805DC16
:10388000049901440491AAEB000102E0411C514556
:1038900000DD8A460499401A401C01904FF0004018
:1038A0000290200704D40198504501DBCDF8048034
:1038B00000208DF84F0002980DF14F07B0F1004F36
:1038C00025D02B200E9002984FF0020800280CDA29
:1038D000404202902D200E9007E00A210298FCF74A
:1038E00017FF3031029007F8011DB8F10001A8F16F
:1038F0000108F2DC02980028EFD1791E0E980870BA
:10390000307800F0200040F0450007F8020D12A8C2
:10391000C01B00F107081498007800B1012000EBEB
:103920000A01019801EBE07105984144401A401EDC
:103930000590E00306D45B462146179A059800F0EF
:103940005DF805441498007818B15A4617999047C5
:103950006D1CE00324D55B462146179A059800F0BC
:103960004DF805441CE00498002807DBDDE903015D
:10397000884203DD0098405C179901E017993020D8
:103980005A469047049805F10105401C049001989F
:10399000401E019004D12E205A46179990476D1C65
:1039A000BAF10001AAF1010ADDDC05E017F8010B0C
:1039B0005A46179990476D1CB8F10001A8F101080B
:1039C000F4DC5B462146179A0598ABE62D00000013
:1039D0002B000000200000002DE9F04104460025E6
:1039E0001E461746880404D405E039462020B04717
:1039F0006D1C641EF9D52846BDE8F0812DE9F04123
:103A0000044600251E469046C80301D5302700E035
:103A10002027880404D505E041463846B0476D1C90
:103A2000641EF9D52846BDE8F08100002DE9F04775
:103A3000244F786A800000F0D5FB0546002408E09A
:103A400000F014FB45F82400388D80B200F078FABD
:103A5000641C7E6AB442F3DB4FF0000AC7F85CA036
:103A6000002406E055F82410F86DFCF75BFBF865C0
:103A7000641CB442F6DB3046FCF7A4FD81460146E7
:103A8000F86DFCF7D9FB8046F865C7F860A0002404
:103A90000CE055F824004146FCF796FB0146FCF784
:103AA00099FB396EFCF73EFB3866641CB442F0DBD0
:103AB0004946386EFCF7C0FB38662846BDE8F0473B
:103AC00000F0ACBA1C00002070B5002000241A4D94
:103AD00055F82410FCF726FB641CE4B2142CF7D331
:103AE0001649FCF7A9FB184C154D164E616DB0F147
:103AF0007C5F0ADD0846FCF7ACFD2A463346FCF73E
:103B00007AFCFCF7E9FD60650CE0B0F13F4F09D9A4
:103B10000846FCF79EFD2A463346FCF7CBFBFCF734
:103B2000DBFD60650948616D00F052FA0146084806
:103B300000F03AFA606570BDCC0100200000A041A1
:103B40009A9999999999B93F1C0000200000A040CA
:103B50000000A0C010B50121054A4B1E52F82140BB
:103B600042F82340491CC9B21429F6D3D06410BDD1
:103B7000CC0100202DE9F84F04460D4621F000400D
:103B800000917349814211DC7249884201DC06D1FF
:103B90002CB120462946BDE8F84FFFF7CCBA6E4855
:103BA000002DCCBF6D496E49BDE8F88F6D4981424B
:103BB00011DD6D498142D8BF4FF0FF366DDD2046E3
:103BC0002946FFF74FFA042808BFFFF7B9FA204645
:103BD0002946BDE8F88F6549654F25F000458142CB
:103BE00033DD6449814219DD002632464FF08043BF
:103BF00020462946FCF75EFB80468A460122204685
:103C00002946FDF7E7F800223B46FCF7F4FB424665
:103C10005346FCF768FC04460D463EE001260022B0
:103C2000BA463B4620462946FCF744FB80460F46F1
:103C30000022534620462946FCF7DDFB42463B4620
:103C4000FCF751FC04460D4627E04B4981421BDD41
:103C5000DFF828A102260022534620462946FCF719
:103C6000D0FB00223B46FCF725FB80460F46002296
:103C7000534620462946FCF7BEFB42463B46FCF72E
:103C800032FC04460D4608E0032622462B4600205F
:103C90003B49FCF728FC04460D4622462B461046BD
:103CA0001946FCF7AEFB8B46824602460B46FCF7F4
:103CB000A8FB07460246334888460B46062178444F
:103CC000FFF7E4F952465B46FCF79BFB82462E4821
:103CD0008B463A46434605217844FFF7D7F93A46E2
:103CE0004346FCF78EFB02460B46002E50465946D3
:103CF0000CDAFCF7DFFA22462B46FCF782FB01B018
:103D000022462B46BDE8F04FFCF778BBFCF7D2FA11
:103D100022462B46FCF775FB1C4A7A4402EBC6038D
:103D2000D3E90023FCF767FB22462B46FCF763FB35
:103D3000174A7A4402EBC603D3E90023FCF75EFB83
:103D4000009A002AB8BF81F00041BDE8F88F00005A
:103D5000000010440000F07F182D4454FB21F93F6F
:103D6000FB21F9BF0000DC3F0000203E0000F33FD4
:103D70000000F03F0000E63F008003400000F83FF5
:103D80000000F0BFBE0F00007C0F00001A0F000003
:103D9000E20E00002DE9F04D9446CCF1000423F032
:103DA00000464CEA0404524F46EAD4749A468846C8
:103DB00021F00042BC4206D8454240EA050442EAEE
:103DC000D474BC4204D9BDE8F04D6246FFF7B6B9E1
:103DD000AAF14055A5F17F6555EA0C040BD00224E9
:103DE00004EAAA74434DDFF810E144EAD87452EAB9
:103DF000000B04D00CE0BDE8F04DFFF7BBBE002C7B
:103E000014BF012CBDE8F08D022C30D0032C32D031
:103E100056EA0C0B0AD0BE4220D1BA4209D126F094
:103E2000804622F080423346114617E000291ADB13
:103E300025E0DFF8C8B0FB44002C04BFDBE900013B
:103E4000BDE8F08D012C02BFDBE9000181F00041EB
:103E5000BDE8F08D022C0AD0032C0CD0BA4212D14E
:103E6000B8F1000F0BDA23482549BDE8F08D28464C
:103E70002449BDE8F08D28467146BDE8F08D1D4807
:103E80002149BDE8F08D921B12153C2AC4BF194888
:103E90001D490EDCBAF1000FBEBF12F13C0F00202D
:103EA000014606DB6246FCF71EFB21F00041FFF7EE
:103EB00061FE002C08BFBDE8F08D012C04BF81F02D
:103EC0000041BDE8F08D114A114B022C07D0FCF7E0
:103ED00092FA2A46BDE8F04D0A4BFCF78CBAFCF783
:103EE0008AFA2A46BDE8F04D064BFCF787BA000077
:103EF0000000F07F182D4454FB2109C0760E00000D
:103F0000FB21F9BFFB210940FB21F93F075C14337A
:103F100026A6A13C30B583B00446FFF719F9054643
:103F20000020CDE90000024621466846FCF773FCFC
:103F30002846FFF723F9DDE9000103B030BD00009A
:103F40000B49498848434FF0E021486100238B61C9
:103F5000086940F0010008610869C20701D0C00388
:103F6000FAD5086920F0010008618B6170470000F4
:103F7000B80000200B49097848434FF0E021486120
:103F800000238B61086940F0010008610869C207DD
:103F900001D0C003FAD5086920F0010008618B61E7
:103FA00070470000B800002070B50C460546FCF7CD
:103FB00011FD00F07040B0F1005F07D024F0004028
:103FC000C0F1FF40C00F04BF204670BD284670BD41
:103FD00070B50C460546FCF7FDFC00F07040B0F1F2
:103FE000004F07D024F00040C0F1FF40C00F04BFD5
:103FF000204670BD284670BD70B50446064DE1B23E
:104000002846FEF7CAFD80212846FEF79BFD0028C2
:10401000F9D0204670BD00000038014010B50028DE
:1040200021D0114B0022001F196803E0814203D800
:104030000A4649680029F9D152B11368841A9C4292
:1040400004D1006818441060104602E0506000E09F
:10405000186039B102680B1A934203D10B681A44F5
:1040600002604968416010BDC001002070B5134A6C
:10407000111F881CFDF7CEFC104E361FB6F9040048
:104080007169401AFCF79EFAFCF7E3FA04460D4604
:10409000B6F902103069401AFCF794FAFCF7D9FA25
:1040A00022462B46FFF776FE4FF00052044BFCF7FA
:1040B000A8F9FCF711FBF06270BD000020000020A1
:1040C000DCA54C4010B50B4A111F881CFDF7C3FC42
:1040D000084C0A3CB4F90600A169401AFCF772FAD0
:1040E000FCF7B7FA044A054BFCF7FDF9FCF7F4FAC4
:1040F000206310BD26000020FCA9F1D24D62504083
:104100002DE9F047244F786A800000F06BF80546EF
:10411000002408E0FFF7D6FF45F82400388D80B270
:10412000FFF70EFF641C7E6AB442F3DB4FF0000A17
:10413000C7F864A0002406E055F82410786EFBF759
:10414000F1FF7866641CB442F6DB3046FCF73AFABD
:1041500081460146786EFCF76FF880467866C7F8AE
:1041600068A000240CE055F824004146FCF72CF828
:104170000146FCF72FF8B96EFBF7D4FFB866641C54
:10418000B442F0DB4946B86EFCF756F8B8662846EC
:10419000BDE8F047FFF742BF1C0000200020401C94
:1041A000C0B20A28FBD3704710B500F0EBF8FFF758
:1041B0003DFCFFF7A5FF084900200860A1F17C0243
:1041C000536E4B6005494FF07E530B60486088602A
:1041D000936ECB60106410BD980000201C0200207C
:1041E00000F02EF9F0B50B30154D20F0070100243A
:1041F000144A0FE003688B420BD38B4205D95E1A39
:1042000043184768C3E9006700E04368136002C0D1
:1042100004E0021D10680028ECD12046002802D1DD
:10422000286808B10020F0BD064A07481060074A18
:10423000121A22F00702C0E9002401202860D7E703
:10424000C4010020C001002054080020500A0020B2
:104250002DE9F05F80460A9F894692469B460025DD
:104260000FE000240AE005FB074659F8261058F82D
:104270002600FBF757FF4AF82600641CBC42F2DB1D
:104280006D1C5D45EDDBBDE8F09F2DE9FF5F8346CA
:10429000DDF838A0DDF840901746002620E0002524
:1042A0001BE006FB0958002047F82800002411E015
:1042B00004FB0951019850F8211006FB0A405BF8F5
:1042C0002000FBF787FF57F82810FBF72BFF47F874
:1042D0002800641C5445EBDB6D1C4D45E1DB761C6E
:1042E00003988642DBDBBDE8FF9F2DE9F05F804647
:1042F0000A9F8B4691469A4600250EE0002409E06D
:1043000005FB0746584658F82610FBF763FF49F8A7
:104310002600641CBC42F3DB6D1C5545EEDBBDE89A
:10432000F09F2DE9F05F80460A9F894692469B46A2
:1043300000250FE000240AE005FB074659F8261087
:1043400058F82600FBF740FF4AF82600641CBC42E0
:10435000F2DB6D1C5D45EDDBBDE8F09FF0B500259F
:104360000DE0002408E005FB034604FB025750F86B
:10437000266041F82760641C9C42F4DB6D1C95426A
:10438000EFDBF0BD70B54FF47A70FFF7D9FD2B4C21
:104390000020E06020616061A061E0612062002592
:1043A000264A121D111F881CFDF734FB234A0A32CE
:1043B000111F881CFDF74FFB208D80B2FFF7C0FD59
:1043C000B4F90010E0680844E060B4F90210206914
:1043D00008442061B4F90410606908446061B4F9CC
:1043E0000610A0690844A061B4F90810E069084407
:1043F000E061B4F90A10206A084420626D1C0A2D9D
:10440000CEDBE1680A2091FBF0F1E160216991FBCC
:10441000F0F12161616991FBF0F1A1F50051616159
:10442000A16991FBF0F1A161E16991FBF0F1E1611A
:10443000216A91FBF0F0206270BD00001C0000209A
:1044400090B04FF00008D94D0095D9480190D94857
:1044500002904FF07F500390D748049000240594B9
:10446000D64806900794089409940A944820FEF7C9
:1044700053F84FF4A060FDF753FBFDF791FAFDF7F9
:104480000FFA6420FFF75CFDFFF78EFE6420FFF754
:1044900057FDCB4804608F2140F2E730FEF7A8F8C3
:1044A000DFF820B300215846FEF77CFA0021584679
:1044B000FEF77AFA00215846FEF778FA00215846AE
:1044C000FEF776FAC04800990160C0480199016082
:1044D000BF4802990160BF4805990160BE4806992E
:1044E0000160BE4807990160BD4D08982860BD4C29
:1044F000208828B10821684600F09AF90020208021
:10450000099800F0CDF9B84C2068FCF7A2F821F02A
:1045100000410022B54BFCF7C7F80BD24FF0000961
:10452000CA46B34900200860B2490860B249086031
:10453000286086E00A98FCF75FF8002800DA40421D
:10454000FCF749F8AD4AAE4BFCF796F810D2AD48EF
:10455000B0F90000FCF73FF8AB4AAC4BFBF7C3FFE8
:104560000022AB4BFBF7BFFFFCF7B6F8054600E0B7
:104570000025A84802990068FBF72CFE82460646F3
:104580009B48019900680F90FBF724FE8146206844
:104590000A990746FBF718FE2946FBF7C3FD009969
:1045A000FBF718FE4946FBF7BDFD3146FBF7BAFDA8
:1045B0000646544638460A99FBF7B4FD2946FBF7F0
:1045C00003FE0099FBF706FE4946FBF7ABFD2146CB
:1045D000FBF7A8FD04464FF07E5531462846FFF70D
:1045E000F7FC8D4E01463046FFF7DEFC8146214642
:1045F0002846FFF7EDFC01463046FFF7D5FC824622
:1046000038460799FBF7E6FD04467A4806990068A4
:10461000FBF7E0FD054605990F98FBF7DBFD294602
:10462000FBF780FD2146FBF77DFD80F00040089000
:104630007A480899FFF7CCFC01467948FFF7B4FCAB
:1046400008900398FCF705F8CDE90D1004460D46D7
:104650004846FBF7FEFF21F000470646DDE9031060
:10466000FBF7B2FDFBF7F5FFCDE90B1032463B46F9
:10467000FBF7C7FE22462B46FBF71CFEFCF72CF887
:104680000646DDE90D545046FBF7E3FF21F00043F9
:104690000246DDE90B10FBF7B4FE22462B46FBF782
:1046A00009FEFCF719F80446404D30462946FBF751
:1046B00091FD064629462046FBF78CFD05464FF442
:1046C0000004A1450BDB00215846FEF76BF930468C
:1046D000FBF7ABFF81B25846FEF766F916E019F119
:1046E000FF4F0BD33046FBF7A0FF81B25846FEF7D1
:1046F00059F900215846FEF757F907E000215846BE
:10470000FEF750F900215846FEF74EF9A2450BDBA3
:1047100000215846FEF74AF92846FBF786FF81B28A
:104720005846FEF745F916E01AF1FF4F0BD328461D
:10473000FBF77BFF81B25846FEF738F90021584657
:10474000FEF736F907E000215846FEF72FF9002161
:104750005846FEF72DF908F101081FFA88F80A20DB
:10476000B8FBF0F100FB118058B90998FBF771FF15
:1047700021F000412B4A2C4BFBF77EFF01D2FFF7C3
:10478000A3F94FF4FA70B8FBF0F100FB118030B9D7
:104790002649D1F8B40130B10020C1F8B40102209B
:1047A000FFF7CEFB8EE60120F7E700000000C842CD
:1047B0003333B34033333340CDCC2C40CDCC4C3E9F
:1047C000B401224200040040040000200800002040
:1047D0000C00002010000020140000201800002011
:1047E00054000020D6000020580000200000E03FC8
:1047F0005C0000205000002070000020EC8C9B85A5
:1048000026353F3F26000020FCA9F1D24D625040E2
:104810000094C14060000020000080BF00002041E3
:10482000000020C19A9999999999A93F00002242C4
:104830002DE9F04706468A460025002000248146DF
:10484000154FDFF8588013E0395D2C290ED107F899
:1048500004903844FFF75EFBFBF73EFF46F8250067
:10486000601C80B26D1CADB2554512D8641CA4B258
:10487000B8F800108C42E7D3B8F80010884208D28C
:1048800007F801903844FFF745FBFBF725FF46F892
:104890002500BDE8F087000024070020D600002096
:1048A0002DE9F047B4B08246FFF7E0FB8146FFF701
:1048B00009FC8046002632963396309631960223C4
:1048C000012230A99448FFF749FD022401270094F2
:1048D000CDE90147234632AA30A99048FFF7D5FC1D
:1048E0002F960094CDE9014701232FAA32A98A48C7
:1048F000FFF7CBFC884D2F98743D296EFBF712FC17
:1049000001464FF07E50FBF797FC01462D962E9600
:1049100002232DAA32A80097FFF7E7FC2C960094FB
:10492000CDE9014701232CAA05F17C017A48FFF764
:10493000ACFC48462C99FBF747FC01462A962B967F
:1049400002232AAA2DA80097FFF7CFFC05F18402C5
:1049500002232AA9A2F108000097FFF779FC269606
:104960002796289629966E48D0E90923016AC06ADD
:10497000CDE92323229125900097CDE901740223EC
:1049800026AA65492DA8FFF780FC1E961F96209643
:10499000219602231EAA26A922A80094FFF7C1FC93
:1049A0005E4A00940194022310325C491EA80294CE
:1049B000FFF76BFC1C961D961A961B960094CDE98A
:1049C000014705F1840102231CAA01F10800FFF749
:1049D0005CFC02231AAA414605F16C000097FFF720
:1049E00084FC022305F17C021AA91CA80097FFF79A
:1049F0002FFC1696179618961996129613961496DB
:104A000015960E960F961096119602231A460EA929
:104A100005F18C00FFF7A2FC4049009401940223A9
:104A200016AA103105F18C000294FFF72EFC0094B9
:104A30000194022312AA0EA916A80294FFF725FCDE
:104A4000089609960123022208A905F16C00FFF7D8
:104A500085FC0097CDE9017402230AAA08A905F193
:104A60006C00FFF712FC04960596069607960094D4
:104A7000022304AA0AA8A96EFFF737FC0223274ADB
:104A800004A912A80094FFF7E3FB05F18404404653
:104A90006168FBF799FBA865C5F84890C5F84C809C
:104AA00022682A6528631046696DFBF78DFBA96BA8
:104AB000FBF78AFB5146FBF787FBFBF7CAFD002299
:104AC000184BFBF710FDFBF707FEE8630146286C67
:104AD000FBF728FB2864FFF73DF8134C286C2146B0
:104AE000FBF7AAFB696BFBF71DFB01462046FFF7AE
:104AF0006FFA01460D48FFF757FA6863A86DFBF798
:104B0000A8FD00220A4BFBF7EEFCFBF7E5FD68640D
:104B100034B0BDE8F0870000900000201C020020A7
:104B2000344B00080000594000002041000020C123
:104B300000406F400000803F0000000000000000C7
:104B40000000803F0000803F0000000000000000E7
:104B50000000803F0000803F0000000000000000D7
:104B60000000803F12010002020000408304405711
:104B700000020102030109024300020100C03209E0
:104B800004000001020201000524001001052401B7
:104B9000000104240202052406000107058203081F
:104BA00000FF09040100020A00000007050302409B
:104BB0000000070581024000000403090426035396
:104BC0000054004D006900630072006F0065006CC6
:104BD0000065006300740072006F006E006900637E
:104BE0000073003203530054004D003300320020A4
:104BF000005600690072007400750061006C0020AE
:104C00000043004F004D00200050006F0072007400
:104C100000200020000000004FBB610567ACDD3FB5
:104C2000182D4454FB21E93F9BF681D20B73EF3FD3
:104C3000182D4454FB21F93FE2652F227F2B7A3C4B
:104C4000075C143326A6813CBDCBF07A8807703C04
:104C5000075C143326A6913CC4EB98999999C9BF77
:104C6000711623FEC671BCBF6D9A74AFF2B0B3BFAC
:104C70009AFDDE522DDEADBF2F6C6A2C44B4A2BF6C
:104C80000D5555555555D53FFF8300922449C23FD8
:104C90006E204CC5CD45B73F513DD0A0660DB13F0C
:104CA000EB0D76244B7BA93F11DA22E33AAD903F1E
:104CB0000000000000000000DDDDDDDDDCBBBBDD51
:104CC000DDDDDDDDDDDDDDDD9888888888888888AC
:104CD00077777777778888888555555666666666CC
:104CE00066666666666888888333333222222222AB
:104CF000222222222228888D184D00080000002040
:104D0000CC010000440E0008A04D0008CC0100209A
:104D1000840C00006C3100080140326402430A65D3
:104D20006F12033B0316803F1B803F240A1CBB24E9
:104D3000A1141A03531254124D123302213213E1FB
:104D4000130C1C081F1B040B105D14145133C201FB
:104D5000120813644B3308121A76083243132130B9
:104D60001408092F1B0805081A1D0413252E1B08FB
:104D7000E1041ACD041A85041A79041AAD044132EB
:104D8000401AB93832041ABD0832261AE30829BA83
:104D900022D833201A2A0467315907011500000070
:04000005080000ED02
:00000001FF
